:020000040800F2
:10000000B8080020AD010008794000083D3E000816
:1000100075400008A90B0008F14F0008000000001F
:10002000000000000000000000000000A5440008DF
:10003000AD0B000800000000ED410008FD44000881
:10004000C7010008C7010008C7010008C701000870
:10005000C7010008C7010008C7010008BD0B000860
:10006000C7010008C7010008C7010008C701000850
:10007000C7010008C7010008C7010008C701000840
:10008000C7010008C7010008C70100080000000000
:10009000000000000000000000000000C701000890
:1000A000C7010008C7010008D1450008C7010008C2
:1000B000C7010008C7010008C7010008C701000800
:1000C000C7010008C7010008C7010008C7010008F0
:1000D000C7010008C7010008C701000800000000B0
:1000E000B10B0008C7010008C701000800000000AC
:1000F000000000000000000000000000C701000830
:1001000000000000C7010008C7010008C70100087F
:1001100000000000000000000000000000000000DF
:10012000C7010008C7010008C7010008C70100088F
:10013000C7010008000000000000000000000000EF
:10014000000000000000000000000000DD41000889
:10015000C7010008C7010008C7010008C70100085F
:10016000C7010008C70100080000000000000000EF
:10017000000000000000000000000000000000007F
:1001800000000000C701000800000000000000009F
:10019000C7010008C7010008DFF80CD000F048FADA
:1001A00000480047D9500008B8080020064880479A
:1001B00006480047FEE7FEE7FEE7FEE7FEE7FEE74C
:1001C000FEE7FEE7FEE7FEE7BD45000899010008EF
:1001D0002DE9F05F0546002092469B46884606467C
:1001E000814640241BE0284641464746224600F00F
:1001F00057F853465A46C01A914110D31146184633
:10020000224600F03EF82D1A67EB01084F462246C1
:100210000120002100F035F817EB00094E41201EA7
:10022000A4F10104DFDC484631462A464346BDE8D6
:10023000F09FD2B201E000F8012B491EFBD27047BB
:100240000022F6E710B513460A4604461946FFF7A2
:10025000F0FF204610BD30B50B460146002020229D
:10026000012409E021FA02F59D4205D303FA02F5C3
:10027000491B04FA02F52844151EA2F10102F1DC23
:1002800030BD202A04DB203A00FA02F1002070473A
:100290009140C2F1200320FA03F3194390407047C4
:1002A000202A04DB203A21FA02F00021704721FACB
:1002B00002F3D040C2F12002914008431946704732
:1002C0002DE9FE4F804681EA0300C00F0C460090E6
:1002D00021F0004123F00045B8EB0200A94105D20E
:1002E0004046214690461C460B46024623F00040FD
:1002F000104347D0270DC7F30A00C3F30A510290F9
:10030000401A019040286BDAC3F3130040F4801BBD
:100310000098924620B10023D2EB030A63EB0B0B4B
:1003200001985946C0F140025046FFF7AAFF064621
:100330000D4650465946019A00F08CF910EB080022
:100340006141002487EA115284EAE7731A4340D0DE
:10035000009A62B3019A012A4FEA075215DC001B8A
:1003600061EB02014FF0004202EA0752CDE9004280
:10037000001C41F5801132462B4600F08CF903B089
:10038000BDE8F08F40462146F9E7001B61EB020112
:10039000001C41F5801300185B412018A2F50017DE
:1003A00047EB030140EAD570B6196D4111E06D08C5
:1003B0004FEA360645EAC0754FEA0752001B61EB6B
:1003C0000201001C41F5801149084FEA3000001974
:1003D000514132462B4603B0BDE8F04F00F04CB916
:1003E0000098012240000023D0EB020263EBE0738F
:1003F000009821464FEAE074B8EB000061EB04017D
:10040000E9E783F000435BE781F0004158E72DE91D
:10041000FE4F81EA030404F0004421F000410094FF
:100420004FF0000B23F0004350EA01045ED052EA83
:1004300003045BD0C3F30A54C1F30A552C44A4F25D
:10044000F3340194A0FB0254C1F3130141F4801171
:10045000C3F3130343F4801301FB024400FB034E78
:10046000840A970A44EA815447EA8357A4FB076841
:1004700002958D0A05FB07854FEA932C04FB0C546B
:100480002705029D4FEA065847EA1637B5EB0805DF
:100490006EEB070C870E920E47EA811742EA831231
:1004A000A7FB0201B6EB0B0164EB00042B0D43EA42
:1004B0000C335E1844EB1C50DA465146E7FB020150
:1004C000C5F313044FEA0B3343EA14534FEA0432E3
:1004D000019C43EA0603A4F10C040294009CCDE9BC
:1004E00000B400F0D8F803B0BDE8F08F002001465A
:1004F000F9E72DE9F04D81EA030404F0004B21F007
:10050000004514464FF0000A23F0004150EA05026E
:1005100020D054EA01021DD0C5F30A570246C5F3A4
:100520001303C1F31300C1F30A5640F4801543F4DA
:100530008013A7EB0608101BD64608F2FD3873EBB4
:10054000050002D308F1010801E092185B41B8F1FF
:10055000000F03DA00200146BDE8F08D00204FF4C3
:100560008011064684460EE0171B73EB050705D382
:10057000121B63EB050306434CEA010C49084FEAE2
:10058000300092185B4150EA0107EDD152EA0300B6
:1005900012D082EA040083EA0501084305D0101B4B
:1005A000AB4106D20122002306E000224FF00043B7
:1005B00002E06FF0010253101AEB06004CEB0851F9
:1005C00010EB0A0041EB0B01BDE8F04D00F054B810
:1005D000C1F30A52C1F3130140F2FF3341F4801119
:1005E0009A4202DA00200146704740F233439A42B1
:1005F000A2F2334202DC5242FFF752BEFFF741BE85
:1006000030B5041E71F1000404DB4FF00044404299
:1006100064EB0101141E73F1000405DB1C464FF06E
:100620000043524263EB0403994208BF904230BD3D
:10063000064C074D06E0E06840F0010394E807002F
:1006400098471034AC42F6D3FFF7AAFDE05F0008EC
:1006500000600008202A06DBCB17203A41FA02F09E
:1006600043EAE07306E041FA02F3D040C2F120020F
:10067000914008431946704710B5141E73F10004E9
:1006800008DA401C41F1000192185B411A4301D184
:1006900020F0010010BD2DE9F04D92469B4611B1AE
:1006A000B1FA81F202E0B0FA80F220329046FFF710
:1006B000E8FD04460F4640EA0A0041EA0B015346B2
:1006C0005A46084313D0114653EA010019D0C8F125
:1006D00040025046FFF7E4FD05460E465046594697
:1006E0004246FFF7CEFD084305D0012004E0204636
:1006F0003946BDE8F08D0020054346EAE0762C43FC
:1007000037430A986305E40AA0EB08000022FD0ABB
:1007100044EA47540A3002D500200146E9E70105C2
:1007200010196941DDE9084500196941BDE8F04D3E
:10073000A2E7000080B58AB08DF8270008918DF8F7
:100740001F200020C4F20200069010210491002214
:1007500000F092FC694664200290086040F2B030DC
:10076000C2F2000003900DF127010DF11E020123DA
:10077000059301F0F1FE029B039808999DF81F2054
:1007800001F090FC0499059A069800F075FC0AB0F7
:1007900080BD000080B588B08DF81F000020C4F235
:1007A0000200069010210491002200F065FC6946C9
:1007B00064200290086040F2B030C2F20000039062
:1007C0000DF11F010DF11D020123059301F0C4FE7F
:1007D000029B059A03980DF11E0101F063FC049938
:1007E000059A069800F048FC9DF81E0008B080BDF0
:1007F00080B584B00390FFE740F2A800C2F2000089
:100800000078C008C00708B9FFE7F5E740F20040EC
:10081000C4F20200009001210191002200F02CFCA2
:100820000399A020202200F087F80098019A40F256
:10083000A803C2F20003197801F0F70119701146FC
:1008400000F01AFC802004B080BD000080B584B0A8
:1008500040F20040C4F202000121002200F00CFC32
:1008600040F20801C2F2000130200522019200F09E
:1008700063F8019A10200DF10A01FFF75BFFFFE713
:1008800045F64060C0F6000045F6BE71C0F60001B6
:100890004F2204F021FE45F6A970C0F6000004F0D6
:1008A0001BFE45F62760C0F6000004F015FEFFE7CA
:1008B00000208DF80F00FFE79DF80F00042812DCE0
:1008C000FFE79DF80F100DF10A00425C45F64870F5
:1008D000C0F6000004F000FEFFE79DF80F000130B5
:1008E0008DF80F00E8E745F62760C0F6000004F039
:1008F000F3FD40F20801C2F200012A20052200F0B7
:100900001BF821200121009100F046F800992220D7
:1009100000F042F824201A2100F03EF8252028217A
:1009200000F03AF826200F2100F036F820200E21A2
:1009300000F032F804B080BD80B58AB08DF8270091
:1009400008918DF81F200020C4F2020006901021AB
:100950000491002200F090FB694664200290086038
:1009600040F2B030C2F2000003900DF127010DF10A
:100970001E020123059301F0EFFD029B03980899E5
:100980009DF81F2001F0A6FC0499059A069800F036
:1009900073FB0AB080BD000080B588B08DF81F00E1
:1009A0008DF81E100020C4F2020006901021049160
:1009B000002200F061FB694664200290086040F26A
:1009C000B030C2F2000003900DF11F010DF11D02C5
:1009D0000123059301F0C0FD029B059A03980DF1D8
:1009E0001E0101F077FC0499059A069800F044FB7B
:1009F00008B080BD80B582B0962000F0EDF80020F0
:100A0000C4F202001021012200F036FB20208DF8F4
:100A10000700FFE79DF8070070B1FFE79DF80700AA
:100A200001388DF807009DF8072040F29441C2F28A
:100A3000000100208854EDE7FFE703F01FFBF0B949
:100A4000FFE7FFE745F62A60C0F6000045F6BE71F5
:100A5000C0F60001BD2204F03FFD45F65C70C0F613
:100A6000000004F039FD45F62760C0F6000004F0F0
:100A700033FDFFE74FF4FA7000F0AEF8DDE7FFE773
:100A800045F64060C0F6000045F6BE71C0F60001B4
:100A9000C12204F021FD45F68170C0F6000004F08B
:100AA0001BFD45F62760C0F6000004F015FDFFE7CA
:100AB0000720FFF76FFE8DF806009DF8061027202F
:100AC000FFF76AFFFFF7C2FE02B080BD40F2A80147
:100AD000C2F200010820086040F2A401C2F2000145
:100AE000002008607047000084B003908DF80B1060
:100AF0008DF80A20002001900398007828B9FFE7BC
:100B0000019840F00100019000E0FFE79DF80A0025
:100B1000039988709DF80B00039948709DF80B00AD
:100B20000146009102280CD0FFE7009803280CD062
:100B3000FFE7009804280CD1FFE703990A2088807A
:100B40000BE003991920888007E0039964208880CE
:100B500003E0039900208880FFE7019A40F2A80192
:100B6000C2F20001086810430860002004B070471A
:100B700080B540F21C01C2F2000140F29C00C2F2BA
:100B80000000086000210170417081700321012282
:100B9000FFF7AAFF80BD000080B5FFF797FFFFF7C2
:100BA000E7FFFFF727FF80BDFFE7FEE77047000084
:100BB00080B54FF4004000F079F880BD80B5022088
:100BC00000F074F880BD000081B0EFF3108072B6C1
:100BD0000090FFE7FEE7000080B584B0039000F0CE
:100BE00063FA0290039801900198013048B1FFE741
:100BF00040F20D00C2F20000017801980844019013
:100C0000FFE7FFE700F050FA0299401A0199884285
:100C100001D2FFE7F6E704B080BD000080B582B0E6
:100C2000ADF80600BDF8060001460091022831D05B
:100C3000FFE70098B0F5004F35D1FFE70020C4F280
:100C400002004FF4004100F0FFF910BBFFE740F253
:100C5000A401C2F20001087840F001000870FFE72B
:100C600045F64060C0F6000045F63571C0F600015B
:100C7000752204F031FC45F62670C0F6000004F041
:100C80002BFC45F62760C0F6000004F025FCFFE7CA
:100C9000FFE709E040F2A801C2F20001087840F045
:100CA0004000087000E0FFE702B080BD80B582B070
:100CB000ADF8060043F61440C4F201000068BDF828
:100CC000061008420CD0FFE7BDF8060043F61441B9
:100CD000C4F201010860BDF80600FFF79FFFFFE7BF
:100CE00002B080BD8BB00A90099100200790069059
:100CF00005900890FFE708980F2800F2A281FFE70F
:100D000008990120884007900998006807990840D1
:100D1000069006980799884240F08E81FFE709986F
:100D2000406800F00300012807D0FFE709984068F9
:100D300000F0030002282FD1FFE70A988068059091
:100D400008984100032000FA01F1059888430590B6
:100D50000998C0680899490000FA01F1059808430C
:100D6000059005980A9988600A9840680590089946
:100D7000012000FA01F10598884305900998406820
:100D8000C0F30010089900FA01F105980843059096
:100D900005980A994860FFE70998406800F0030049
:100DA000032818D0FFE70A98C0680590089841000A
:100DB000032000FA01F1059888430590099880689E
:100DC0000899490000FA01F1059808430590059833
:100DD0000A99C860FFE70998406800F003000228FC
:100DE00026D1FFE70A9808996FF0030202EA510141
:100DF0000844006A0590089800F0070081000F2061
:100E000000FA01F10598884305900998006908994E
:100E100001F00701890000FA01F1059808430590E7
:100E200005980A99089B02EA530211440862FFE7F9
:100E30000A980068059008984100032000FA01F123
:100E40000598884305900998406800F003000899C8
:100E5000490000FA01F105980843059005980A99A0
:100E60000860099880798007002800F0E480FFE797
:100E7000FFE70020049043F64400C4F2020001683A
:100E800041F480410160006800F4804004900498BF
:100E9000FFE7089820F0030043F60801C4F20101BF
:100EA00040580590089800F0030081000F2000FAD8
:100EB00001F10598884305900A980021C4F20201C7
:100EC000884203D1FFE70020039034E00A9840F203
:100ED0000041C4F20201884203D1FFE701200290E1
:100EE00026E00A9840F60001C4F20201884203D1CC
:100EF000FFE70220019018E00A9840F60041C4F292
:100F00000201884203D1FFE7032000900AE00A991A
:100F100041F20002C4F202020720914208BF0420FD
:100F20000090FFE700980190FFE701980290FFE72B
:100F300002980390FFE70398C0B2089901F00301FB
:100F4000890000FA01F10598084305900598089971
:100F500021F0030143F60802C4F20102885043F66F
:100F60000840C4F20100006805900699059888437E
:100F7000059009988079C006002805D5FFE70699F5
:100F8000059808430590FFE7059843F60841C4F229
:100F90000101086043F60C40C4F2010000680590AE
:100FA000069905988843059009988079800600285D
:100FB00005D5FFE70699059808430590FFE70598D2
:100FC00043F60C41C4F20101086043F60440C4F248
:100FD00001000068059006990598884305900998D6
:100FE00080798007002805D5FFE706990598084312
:100FF0000590FFE7059843F60441C4F2010108603B
:1010000043F60040C4F20100006805900699059877
:101010008843059009988079C00728B1FFE70699B1
:10102000059808430590FFE7059843F60041C4F290
:1010300001010860FFE7FFE7FFE70898013008902B
:1010400059E60BB07047000082B00190ADF8021075
:1010500001980069BDF80210084204D0FFE70120A2
:101060008DF8010003E000208DF80100FFE79DF8F6
:10107000010002B07047000082B00190ADF802108C
:101080008DF801209DF8010028B1FFE7BDF80200AE
:101090000199886105E0BDF80200000401998861AA
:1010A000FFE702B07047000040F2B440C2F2000017
:1010B0000068704780B582B001900198D0F80003B5
:1010C00003F08CFC02B080BD80B582B00190019825
:1010D000D0F8000303F092FC02B080BD82B0019012
:1010E0008DF803108DF8022002B0704780B586B0ED
:1010F000059005980068049004980390059800688E
:1011000003F06AFD012840F0DB80FFE705980068E6
:1011100003F076FE08B9FFE7D2E00598006803F017
:101120006FFE8002002806D5FFE7059801684FF49E
:1011300000104861FFE70598006803F061FEC002F7
:10114000002806D5FFE7059801684FF48010486134
:10115000FFE70598006803F053FE4001002806D51C
:10116000FFE7059801684FF080604861FFE7059848
:10117000006803F045FE8007002805D5FFE70598C5
:10118000016802204861FFE70598006803F038FE17
:10119000800000281CD5FFE7059801684FF000503B
:1011A00048610398D0F84004C00780B9FFE704986D
:1011B000102103F0CDFC049803F08AFC0598006828
:1011C000012103F0EBFD0598FFF77EFFFFE7FFE746
:1011D0000598006803F014FEC001002804D5FFE75D
:1011E000059802F015FDFFE70598006803F008FE7A
:1011F0000007002808D5FFE7059800F077F8059864
:10120000016808204861FFE70598006803F0F8FDD1
:1012100000F010010020B0EB111F10D0FFE705987F
:101220000168886920F010008861059802F062FD6D
:1012300005980168886940F010008861FFE705980B
:10124000006803F0DDFD8001002838D5FFE7059830
:10125000006803F099FD019000200290FFE70298DA
:1012600005998968884224D2FFE70198029901F024
:101270000F01C840C007B8B1FFE70398029900EB1F
:101280004110D0F800050004002806D5FFE70598B6
:101290009DF8081001F00EFF05E005989DF8081074
:1012A00002F0DCF9FFE7FFE7FFE702980130029068
:1012B000D5E7059801684FF000704861FFE7FFE748
:1012C00006B080BD80B582B001900198D0F80003CF
:1012D00003F0C0FB02B080BD80B582B001900198E0
:1012E000D0F8000303F0BEFB02B080BD80B582B031
:1012F00001900198D0F8000303F09EFB02B080BD7E
:1013000080B582B00090FFE7009890F8F8020128BD
:1013100004D1FFE702208DF8070013E000990120B7
:1013200081F8F802FFE7FFE70098006803F0D0FDBE
:10133000FFE70099002081F8F802FFE700208DF810
:101340000700FFE79DF8070002B080BD40F20D00E6
:10135000C2F20000027840F2B441C2F20001086813
:10136000104408607047000080B543F60041C4F2A5
:101370000201086840F400700860086840F480606A
:101380000860086840F480700860032000F08AF864
:101390000F2000F005F800F03BF8002080BD0000B1
:1013A00080B582B0009040F20400C2F200000068F4
:1013B00040F20D01C2F200010A784FF47A71B1FBDC
:1013C000F2F1B0FBF1F001F07BFA20B1FFE7012070
:1013D0008DF8070018E000980F280DD8FFE7009956
:1013E0004FF0FF30002200F043F8009840F2100167
:1013F000C2F20001086003E001208DF8070003E05D
:1014000000208DF80700FFE79DF8070002B080BDBF
:1014100082B0FFE70020019043F64400C4F20200CE
:10142000016841F480410160006800F4804001904F
:101430000198FFE7FFE70020009043F64000C4F268
:101440000200016841F080510160006800F08050A6
:1014500000900098FFE702B07047000080B582B0AE
:101460008DF807009DF9070003F0C4FD02B080BDB0
:1014700080B586B08DF81700049103920020029089
:1014800003F0D0FD02909DF9170001900298049995
:10149000039A02F06DFE0146019803F0CBFD06B001
:1014A00080BD000080B582B00190019803F0E4FD9A
:1014B00002B080BD80B584B002900191029820B93D
:1014C000FFE701208DF80F0021E1019843F600416C
:1014D000C4F20201096801F00701884212D9FFE74E
:1014E000019943F60040C4F202000170006800F068
:1014F00007000199884204D0FFE701208DF80F0012
:1015000005E1FFE702980078800700282AD5FFE769
:10151000029800784007002809D5FFE743F6080144
:10152000C4F20201086840F4E0500860FFE7029846
:1015300000780007002809D5FFE743F60801C4F248
:101540000201086840F460400860FFE743F60801C4
:10155000C4F20201086820F0F000029A9268104379
:101560000860FFE702980078C00700286ED0FFE708
:1015700002984068012811D1FFE743F60000C4F249
:101580000200006800F400310020B0EB514F04D19C
:10159000FFE701208DF80F00B9E02CE002984068C9
:1015A000022805D0FFE702984068032811D1FFE721
:1015B00043F60000C4F20200006800F00071002051
:1015C000B0EB516F04D1FFE701208DF80F009EE0D2
:1015D00010E043F60000C4F20200006800F00201CF
:1015E0000020B0EB510F04D1FFE701208DF80F0070
:1015F0008DE0FFE7FFE743F60801C4F20201086847
:1016000020F00300029A526810430860FFF74CFD77
:101610000090FFE743F60800C4F20200006800F003
:101620000C0002994968B0EB810F0ED0FFE7FFF77D
:101630003BFD0099401A41F28931884204D3FFE70B
:1016400003208DF80F0062E0E4E7FFE7019843F61E
:101650000041C4F20201096801F00701884212D278
:10166000FFE7019943F60040C4F2020001700068F0
:1016700000F007000199884204D0FFE701208DF8AF
:101680000F0044E0FFE702980078400700280CD5DF
:10169000FFE743F60801C4F20201086820F4E050B5
:1016A000029AD26810430860FFE7029800780007AA
:1016B00000280DD5FFE743F60801C4F202010868CF
:1016C00020F46040029A126940EAC2000860FFE715
:1016D00000F04CF843F60801C4F202010968C9B2EF
:1016E0000A0945F6CA51C0F60001895CC84040F2BB
:1016F0000401C2F20001086040F21000C2F20000D2
:101700000068FFF74DFE00208DF80F00FFE79DF801
:101710000F0004B080BD000040F20400C2F20000DF
:101720000068704780B5FFF7F7FF43F60801C4F281
:1017300002010968C1F3822245F6DA51C0F60001C0
:10174000895CC84080BD000080B5FFF7E5FF43F627
:101750000801C4F20201096889B24A0B45F6DA5160
:10176000C0F60001895CC84080BD000080B586B02D
:101770000020059004900390029043F60800C4F204
:101780000200006800F00C000146019140B1FFE743
:10179000019804280AD0FFE7019808280CD04FE0F0
:1017A00042F20040C0F2F40002904FE043F20060C9
:1017B000C0F26E10029049E043F60400C4F2020049
:1017C000016801F03F01059100684002002813D52F
:1017D000FFE743F60400C4F202000068C0F388107B
:1017E00043F20061C0F26E11A0FB0101059A0023D3
:1017F000FEF7EEFC049012E043F60400C4F202008F
:101800000068C0F3881042F20041C0F2F401A0FB6E
:101810000101059A0023FEF7DBFC0490FFE743F685
:101820000400C4F20200006800F44031022000EB22
:10183000D130039004980399B0FBF1F0029005E0D9
:1018400042F20040C0F2F4000290FFE7029806B0B6
:1018500080BD000080B586B00490049820B9FFE7F1
:1018600001208DF8170050E304980078C007002885
:1018700000F0A580FFE743F60800C4F2020000680C
:1018800000F00C00042813D0FFE743F60800C4F270
:101890000200006800F00C0008281ED1FFE743F6A4
:1018A0000400C4F2020000684002002815D5FFE7DA
:1018B00043F60000C4F20200006800F4003100208A
:1018C000B0EB514F08D0FFE70498406820B9FFE71C
:1018D00001208DF8170018E370E0FFE704984068D6
:1018E000B0F5803F09D1FFE743F60001C4F20201E1
:1018F000086840F48030086020E004984068B0F543
:10190000A02F0DD1FFE743F60001C4F202010868E1
:1019100040F480200860086840F4803008600CE0E3
:1019200043F60001C4F20201086820F48030086028
:10193000086820F480200860FFE7FFE7FFE70498CD
:101940004068E8B1FFE7FFF7AFFB0390FFE743F61E
:101950000000C4F20200006800F400310020B0EB87
:10196000514F0CD1FFE7FFF79FFB0399401A652801
:1019700004D3FFE703208DF81700C6E2E7E71CE079
:10198000FFF792FB0390FFE743F60000C4F202006A
:10199000006800F400310020B0EB514F0CD0FFE79D
:1019A000FFF782FB0399401A652804D3FFE7032061
:1019B0008DF81700A9E2E7E7FFE7FFE7FFE70498E4
:1019C00000788007002840F19680FFE743F6080082
:1019D000C4F20200006810F00C0F13D0FFE743F6CA
:1019E0000800C4F20200006800F00C0008282CD1A6
:1019F000FFE743F60400C4F202000068400200283A
:101A000023D4FFE743F60000C4F20200006800F0B0
:101A100002010020B0EB510F09D0FFE70498C06825
:101A2000012804D0FFE701208DF817006DE243F68E
:101A30000001C4F20201086820F0F800049A12695B
:101A400040EAC2000860FFE754E00498C06870B341
:101A5000FFE70021C4F2472101200860FFF724FBC3
:101A60000390FFE743F60000C4F20200006800F0B4
:101A700002010020B0EB510F0CD1FFE7FFF714FB80
:101A80000399401A032804D3FFE703208DF81700B9
:101A90003BE2E7E743F60001C4F20201086820F0E8
:101AA000F800049A126940EAC200086021E00021AF
:101AB000C4F2472100200860FFF7F6FA0390FFE721
:101AC00043F60000C4F20200006800F002010020AA
:101AD000B0EB510F0CD0FFE7FFF7E6FA0399401A7D
:101AE000032804D3FFE703208DF817000DE2E7E792
:101AF000FFE7FFE7FFE704980078000700284BD5D1
:101B0000FFE70498406918B3FFE740F68061C4F22C
:101B1000472101200860FFF7C7FA0390FFE743F66B
:101B20007400C4F20200006800F002010020B0EB73
:101B3000510F0CD1FFE7FFF7B7FA0399401A0328BA
:101B400004D3FFE703208DF81700DEE1E7E722E08A
:101B500040F68061C4F2472100200860FFF7A4FA34
:101B60000390FFE743F67400C4F20200006800F03F
:101B700002010020B0EB510F0CD0FFE7FFF794FA01
:101B80000399401A032804D3FFE703208DF81700B8
:101B9000BBE1E7E7FFE7FFE704980078400700288C
:101BA00040F1CE80FFE700208DF8070043F64000AB
:101BB000C4F202000068C000002815D4FFE7FFE768
:101BC0000020009043F64000C4F20200016841F09A
:101BD00080510160006800F0805000900098FFE79D
:101BE00001208DF80700FFE747F20000C4F2000073
:101BF0000068C005002822D4FFE747F20001C4F2C4
:101C00000001086840F480700860FFF74DFA039007
:101C1000FFE747F20000C4F200000068C00500289A
:101C20000CD4FFE7FFF740FA0399401A032804D3C6
:101C3000FFE703208DF8170067E1EAE7FFE7FFE71A
:101C400004988068012809D1FFE743F67001C4F2C7
:101C50000201086840F0010008601FE004988068F5
:101C600005280DD1FFE743F67001C4F202010868B0
:101C700040F004000860086840F0010008600CE0D3
:101C800043F67001C4F20201086820F00100086008
:101C9000086820F004000860FFE7FFE7FFE704980A
:101CA0008068F8B1FFE7FFF7FFF90390FFE743F61D
:101CB0007000C4F20200006800F002010020B0EBE6
:101CC000510F0ED1FFE7FFF7EFF90399401A41F2E8
:101CD0008931884204D3FFE703208DF8170014E10F
:101CE000E5E71EE0FFF7E0F90390FFE743F6700039
:101CF000C4F20200006800F002010020B0EB510FB6
:101D00000ED0FFE7FFF7D0F90399401A41F289316D
:101D1000884204D3FFE703208DF81700F5E0E5E7DC
:101D2000FFE79DF80700012809D1FFE743F64001CE
:101D3000C4F20201086820F080500860FFE7FFE766
:101D400004988069002800F0DC80FFE743F6080073
:101D5000C4F20200006800F00C00082800F0858042
:101D6000FFE70498806902285CD1FFE76021C4F294
:101D7000472100200860FFF797F90390FFE743F63B
:101D80000000C4F20200006800F000710020B0EB17
:101D9000516F0CD0FFE7FFF787F90399401A03282A
:101DA00004D3FFE703208DF81700AEE0E7E70499BE
:101DB000C869D1F820C04B6A8A6A40EA0C0040EA40
:101DC0008310D2034FF6FF739A43A2F5803210437B
:101DD000C96A40EA016043F60401C4F202010860E6
:101DE0006021C4F2472101200860FFF75DF90390EC
:101DF000FFE743F60000C4F20200006800F0007143
:101E00000020B0EB516F0CD1FFE7FFF74DF90399BC
:101E1000401A032804D3FFE703208DF8170074E06D
:101E2000E7E721E06021C4F2472100200860FFF7C6
:101E30003BF90390FFE743F60000C4F2020000689C
:101E400000F000710020B0EB516F0CD0FFE7FFF7FE
:101E50002BF90399401A032804D3FFE703208DF8D8
:101E6000170052E0E7E7FFE74AE00498806901289D
:101E700004D1FFE701208DF8170046E043F6040087
:101E8000C4F202000068029004988069012831D0F1
:101E9000FFE7029800F480000499C969884229D1BB
:101EA000FFE7029800F03F000499096A884221D1B7
:101EB000FFE7029847F6C07108400499496AB0EB01
:101EC000811F17D1FFE7029800F440300499896A16
:101ED000C9034FF6FF729143A1F58031884209D1C1
:101EE000FFE7029800F070600499C96AB0EB016FD7
:101EF00004D0FFE701208DF8170006E0FFE7FFE7B9
:101F0000FFE700208DF81700FFE79DF8170006B0E7
:101F100080BD000080B584B00290029820B9FFE730
:101F200001208DF80F0071E00298406A60B9FFE768
:101F300002984068B0F5827F01D1FFE703E0029983
:101F40000020C861FFE705E00299002008610299BE
:101F50004861FFE7029900208862029890F85100DA
:101F600040B9FFE70299002081F85000029800F084
:101F700051F8FFE70299022081F8510002980168A8
:101F8000086820F040000860029A019211685068C9
:101F9000D2F808C0D36800F482700CF4044C60449A
:101FA00003F400631844136903F0020318445369EF
:101FB00003F001031844936903F400731844D369D0
:101FC00003F038031844136A03F080031843926A3D
:101FD00002F4005210430860029A508B00F0040093
:101FE0001168526A02F010021044486002980168B9
:101FF000C86920F40060C861029900204865029A0F
:10200000012182F851108DF80F00FFE79DF80F00B5
:1020100004B080BD80B588B0079000200690059080
:102020000490039002900798006843F20001C4F204
:102030000101884233D1FFE7FFE70020019043F61A
:102040004400C4F20200016841F48051016000685C
:1020500000F4805001900198FFE7FFE70020009016
:1020600043F63000C4F20200016841F00101016052
:10207000006800F0010000900098FFE7E020029067
:102080000220039000200490032005900520069074
:102090000020C4F2020002A9FEF724FEFFE708B008
:1020A00080BD000080B588B006900591ADF8122083
:1020B000039300208DF8070006984068B0F5827FF2
:1020C00016D1FFE70698806890B9FFE706990420CB
:1020D00081F851000698059ABDF812300399EC4634
:1020E000CCF80010114600F037FA8DF81F00EDE033
:1020F000FFE7069890F85000012804D1FFE702207E
:102100008DF81F00E2E00699012081F85000FFE7FA
:10211000FFE7FEF7C9FF0290069890F851000128EA
:1021200004D0FFE702208DF80700C0E0059820B139
:10213000FFE7BDF8120020B9FFE701208DF8070086
:10214000B5E00699042081F8510006990020486501
:102150000599069A9163BDF81210069A9187BDF809
:102160001210069AD18706990863069988860699FF
:10217000C886069908640699486406988068B0F590
:10218000004F0DD1FFE706980168086820F0400075
:10219000086006980168086820F480400860FFE73E
:1021A00006980068006800F04000402807D0FFE76C
:1021B00006980168086840F040000860FFE706984C
:1021C000C06880BBFFE7FFE70698C08F50B3FFE70A
:1021D000069800688068C00778B1FFE70698006835
:1021E000007B0699896B08700699886B01308863BB
:1021F0000699C88F0138C88713E0FEF755FF02998A
:10220000401A0399884204D3FFE70398013018B9B4
:10221000FFE7039820B9FFE703208DF8070046E0A9
:10222000FFE7D1E72FE0FFE70698C08F50B3FFE745
:10223000069800688068C00778B1FFE706980068D4
:10224000C0680699896B08800699886B023088639C
:102250000699C88F0138C88713E0FEF725FF029959
:10226000401A0399884204D3FFE70398013018B954
:10227000FFE7039820B9FFE703208DF8070016E079
:10228000FFE7D1E7FFE706980399029A01F0B0FF54
:1022900020B1FFE7069920204865FFE70698406DCA
:1022A00020B1FFE701208DF80700FFE7FFE706995F
:1022B000012081F85100FFE70699002081F85000C5
:1022C000FFE79DF807008DF81F00FFE79DF81F004E
:1022D00008B080BD80B588B006900591ADF8122099
:1022E000039300208DF80700FFE7069890F8500050
:1022F000012804D1FFE702208DF81F0028E106998C
:10230000012081F85000FFE7FFE7FEF7CDFE0290C5
:10231000BDF81200ADF80400069890F851000128AD
:1023200004D0FFE702208DF8070002E1059820B1F4
:10233000FFE7BDF8120020B9FFE701208DF8070084
:10234000F7E00699032081F85100069900204865BE
:102350000599069A1163BDF81210069A9186BDF888
:102360001210069AD186069988630699888706997D
:10237000C887069948640699086406988068B0F58D
:10238000004F0DD1FFE706980168086820F0400073
:10239000086006980168086840F480400860FFE71C
:1023A00006980068006800F04000402807D0FFE76A
:1023B00006980168086840F040000860FFE706984A
:1023C000C068B0F5006F47D1FFE70698406828B1B4
:1023D000FFE7BDF8040001280ED1FFE70698016869
:1023E000006B0088C8600699086B02300863069984
:1023F000C88E0138C886FFE7FFE70698C08E50B345
:10240000FFE7069800688068800700280ED5FFE780
:1024100006980168006B0088C8600699086B023056
:1024200008630699C88E0138C88613E0FEF73CFEA3
:102430000299401A0399884204D3FFE703980130B8
:1024400018B9FFE7039820B9FFE703208DF80700CC
:102450006FE0FFE7D1E746E00698406828B1FFE764
:10246000BDF8040001280ED1FFE706980168006B53
:10247000007808730699086B013008630699C88EC6
:102480000138C886FFE7FFE70698C08E50B3FFE724
:10249000069800688068800700280ED5FFE7069838
:1024A0000168006B007808730699086B01300863B7
:1024B0000699C88E0138C88613E0FEF7F5FD02992B
:1024C000401A0399884204D3FFE70398013018B9F2
:1024D000FFE7039820B9FFE703208DF8070028E005
:1024E000FFE7D1E7FFE706980399029A01F0F2FEB1
:1024F00020B1FFE7069920204865FFE7069880682D
:1025000070B9FFE7FFE70020009006980068C068F8
:10251000009006980068806800900098FFE7FFE749
:102520000698406D20B1FFE701208DF80700FFE716
:10253000FFE70699012081F85100FFE70699002086
:1025400081F85000FFE79DF807008DF81F00FFE7B6
:102550009DF81F0008B080BD80B58EB0DDF840C08A
:102560000C900B910A92ADF82630012005900020C6
:102570008DF81300FFE70C9890F85000012804D163
:10258000FFE702208DF8370095E10C99012081F8D2
:102590005000FFE7FFE7FEF787FD06900C9890F8E4
:1025A00051008DF81F000C9840680890BDF8260077
:1025B000ADF824009DF81F00012812D0FFE708980D
:1025C000B0F5827F09D1FFE70C98806828B9FFE752
:1025D0009DF81F00042804D0FFE702208DF81300A7
:1025E0005AE10B9838B1FFE70A9820B1FFE7BDF830
:1025F000260020B9FFE701208DF813004CE10C986C
:1026000090F85100042805D0FFE70C99052081F8C7
:102610005100FFE70C99002048650A990C9A9163D4
:10262000BDF826100C9AD187BDF826100C9A918718
:102630000B990C9A1163BDF826100C9AD186BDF83F
:1026400026100C9A91860C9908640C9948640C9891
:102650000068006800F04000402807D0FFE70C98B1
:102660000168086840F040000860FFE70C98C06807
:10267000B0F5006F76D1FFE70C98406828B1FFE70E
:10268000BDF8240001280ED1FFE70C980168006B0B
:102690000088C8600C99086B023008630C99C88EDA
:1026A0000138C886FFE7FFE70C98C18E0120029031
:1026B00039B9FFE70C98C08F002818BF012002909D
:1026C000FFE70298C00700284BD0FFE70C9800688E
:1026D00080688007002818D5FFE70C98C08EA0B14D
:1026E000FFE70598012810D1FFE70C980168006BFF
:1026F0000088C8600C99086B023008630C99C88E7A
:102700000138C88600200590FFE70C9800688068B3
:10271000C007A8B1FFE70C98C08F88B1FFE70C98FD
:102720000068C0680C99896B08800C99886B02302E
:1027300088630C99C88F0138C88701200590FFE78E
:10274000FEF7B2FC0699401A1099884208D3FFE7B9
:102750001098013020B1FFE703208DF813009BE0B3
:10276000A2E778E00C98406828B1FFE7BDF82400A4
:1027700001280ED1FFE70C980168006B0078087300
:102780000C99086B013008630C99C88E0138C88613
:10279000FFE7FFE70C98C18E0120019039B9FFE7F0
:1027A0000C98C08F002818BF01200190FFE7019806
:1027B000C00700284ED0FFE70C98006880688007AB
:1027C000002818D5FFE70C98C08EA0B1FFE7059848
:1027D000012810D1FFE70C980168006B007808739E
:1027E0000C99086B013008630C99C88E0138C886B3
:1027F00000200590FFE70C9800688068C007A8B12A
:10280000FFE70C98C08F88B1FFE70C980068C0689C
:102810000C99896B08700C99886B013088630C994E
:10282000C88F0138C88701200590FFE7FEF73CFC00
:102830000699401A1099884204D3FFE71098013096
:1028400018B9FFE7109820B9FFE703208DF81300AF
:1028500022E09FE7FFE70C981099069A01F03AFDF5
:1028600038B1FFE701208DF813000C99202048654E
:1028700012E00C98806870B9FFE7FFE70020039032
:102880000C980068C06803900C98006880680390FA
:102890000398FFE7FFE7FFE70C99012081F851005B
:1028A000FFE70C99002081F85000FFE79DF8130026
:1028B0008DF83700FFE79DF837000EB080BD0000AF
:1028C00080B582B00190019801F0EEFD02B080BDAC
:1028D00081B0009001B0704781B0009001B07047A6
:1028E00080B582B00090009820B9FFE701208DF8F4
:1028F00007003FE0009890F83D0040B9FFE70099DD
:10290000002081F83C00009800F038F8FFE70099BB
:10291000022081F83D00009951F8040B01F060FE9F
:102920000099012081F84600FFE70099012081F815
:102930003E00009981F83F00009981F8400000991D
:1029400081F84100FFE7FFE70099012081F842008C
:10295000009981F84300009981F84400009981F8BA
:102960004500FFE70099012081F83D0000208DF827
:102970000700FFE79DF8070002B080BD80B584B076
:1029800003900398006844F60001C4F201018842F4
:102990001BD1FFE7FFE70020029043F64400C4F29A
:1029A0000200016841F480210160006800F4802089
:1029B00002900298FFE71A20019005210022FEF7FD
:1029C00057FD0198FEF74AFDFFE704B080BD000007
:1029D00083B00190019890F83D00012804D0FFE7F2
:1029E00001208DF80B0058E00199022081F83D008C
:1029F00001980168C86840F00100C860019800684B
:102A00000021C4F2010188422AD0FFE70198006842
:102A1000B0F1804F24D0FFE70198006840F20041F8
:102A2000C4F2000188421BD0FFE70198006840F61D
:102A30000001C4F20001884212D0FFE7019800684B
:102A400040F60041C4F20001884209D0FFE7019836
:102A5000006844F20001C4F20101884212D1FFE78C
:102A600001980068806800F0070000900098062830
:102A700007D0FFE701980168086840F0010008608E
:102A8000FFE706E001980168086840F0010008606F
:102A9000FFE700208DF80B00FFE79DF80B0003B067
:102AA0007047000081B0009001B0704780B582B0DF
:102AB000019001980068006900F002010020B0EB6D
:102AC000510F28D0FFE701980068C06800F00201AC
:102AD0000020B0EB510F1DD0FFE7019801686FF0A7
:102AE0000200086101990120087701980068806957
:102AF000800720B1FFE70198FFF7D4FF06E00198B7
:102B000000F012F9019800F013F9FFE70199002095
:102B10000877FFE7FFE701980068006900F004010B
:102B20000020B0EB910F29D0FFE701980068C06842
:102B300000F004010020B0EB910F1ED0FFE70198D8
:102B400001686FF00400086101990220087701987C
:102B50000068806910F4407F04D0FFE70198FFF718
:102B6000A1FF06E0019800F0DFF8019800F0E0F81E
:102B7000FFE7019900200877FFE7FFE70198006869
:102B8000006900F008010020B0EBD10F28D0FFE76A
:102B900001980068C06800F008010020B0EBD10F78
:102BA0001DD0FFE7019801686FF0080008610199E6
:102BB0000420087701980068C069800720B1FFE70A
:102BC0000198FFF76FFF06E0019800F0ADF801985B
:102BD00000F0AEF8FFE7019900200877FFE7FFE774
:102BE00001980068006900F010010020B0EB111F8F
:102BF00029D0FFE701980068C06800F010010020AC
:102C0000B0EB111F1ED0FFE7019801686FF01000B4
:102C1000086101990820087701980068C06910F4DC
:102C2000407F04D0FFE70198FFF73CFF06E00198E2
:102C300000F07AF8019800F07BF8FFE70199002096
:102C40000877FFE7FFE7019800680069C00780B1D7
:102C5000FFE701980068C068C00748B1FFE7019826
:102C600001686FF001000861019800F065F8FFE766
:102C7000FFE7019800680069C1B20020B0EBD11FE6
:102C800013D0FFE701980068C068C1B20020B0EB24
:102C9000D11F09D0FFE7019801686FF0800008613B
:102CA0000198FFF715FEFFE7FFE70198006800694C
:102CB00000F040010020B0EB911F14D0FFE7019815
:102CC0000068C06800F040010020B0EB911F09D0FF
:102CD000FFE7019801686FF040000861019800F07B
:102CE00069F8FFE7FFE701980068006900F020013C
:102CF0000020B0EB511F14D0FFE701980068C068B6
:102D000000F020010020B0EB511F09D0FFE701982F
:102D100001686FF0200008610198FFF7DDFDFFE713
:102D2000FFE702B080BD000081B0009001B07047A5
:102D300081B0009001B0704784B0039003980068A0
:102D400044F60001C4F20101884231D1FFE740F2AC
:102D5000A400C2F20000019040F2A800C2F20000FC
:102D60000290C1780020B0EBD11F20D1FFE740F2E4
:102D70001800C2F20000007865280FDBFFE740F280
:102D80001801C2F200010020087040F2A801C2F24E
:102D90000001C87840F08000C87007E040F21801D8
:102DA000C2F20001087801300870FFE7FFE7FFE793
:102DB00004B0704781B0009001B0704780B582B018
:102DC0000090009820B9FFE701208DF807003EE051
:102DD0000098806908B1FFE700E0FFE7009890F8ED
:102DE0003D0040B9FFE70099002081F83C000098C1
:102DF00000F032F8FFE70099242081F83D000098A8
:102E00000168C86820F40050C860009801F086FC92
:102E100000980168086920F49040086100980168F2
:102E2000486920F02A00486100980168C86840F4A9
:102E30000050C860009900200864009A202182F8A0
:102E40003D10009A82F83E108DF80700FFE79DF8CC
:102E5000070002B080BD000080B58AB00990002054
:102E6000089007900690059004900998006841F238
:102E70000001C4F20101884234D1FFE7FFE70020DE
:102E8000039043F64400C4F20200016841F01001CF
:102E90000160006800F0100003900398FFE7FFE76F
:102EA0000020029043F63000C4F20200016841F0B5
:102EB00001010160006800F0010002900298FFE744
:102EC0004FF4C0600490022005900020069003207B
:102ED0000790072008900020C4F2020004A9FDF723
:102EE00001FF3CE00998006844F20041C4F200018F
:102EF000884233D1FFE7FFE70020019043F640000E
:102F0000C4F20200016841F400310160006800F47D
:102F1000003001900198FFE7FFE70020009043F6A2
:102F20003000C4F20200016841F001010160006854
:102F300000F0010000900098FFE70C2004900220B0
:102F4000059000200690032007900720089000209D
:102F5000C4F2020004A9FDF7C5FEFFE7FFE70AB0CF
:102F600080BD000080B58AB008900791ADF81A20A6
:102F7000059300200290089890F83D00202840F02A
:102F80009080FFE7079820B1FFE7BDF81A0020B94D
:102F9000FFE701208DF8270087E0FFE7089890F809
:102FA0003C00012804D1FFE702208DF827007CE0D7
:102FB0000899012081F83C00FFE7FFE7089900200D
:102FC00008640899212081F83D00FEF76DF8029011
:102FD000BDF81A0008998884BDF81A000899C884B9
:102FE00008988068B0F5805F09D1FFE7089800690C
:102FF00028B9FFE7002004900798039004E00798A1
:10300000049000200390FFE7FFE70899002081F873
:103010003C00FFE7FFE70898C08C58B3FFE708982B
:10302000029B05996A4611608021002201F014FC80
:1030300020B1FFE703208DF8270036E0049858B947
:10304000FFE7039800886FF35F20089909684860DC
:1030500003980230039008E0049800780899096802
:103060004860049801300490FFE70899C88C013843
:10307000C884D0E70898029B05996A4611604021F0
:10308000002201F0E9FB20B1FFE703208DF82700C3
:103090000BE00899202081F83D0000208DF82700E2
:1030A00003E002208DF82700FFE79DF827000AB013
:1030B00080BD000080B586B005908DF8131005988E
:1030C00000680390039802909DF813000190029805
:1030D000019900EB4110D0F808054007002816D5EB
:1030E000FFE70298019900EB41110420C1F808059F
:1030F000059A01982C2100FB0121062081F861002E
:10310000059800689DF8041001F06EFD99E00298A2
:10311000019900EB4110D0F80805C005002817D52B
:10312000FFE70298019900EB41114FF48070C1F85C
:103130000805059A01982C2100FB0121072081F840
:103140006100059800689DF8041001F04DFD77E0DE
:103150000298019900EB4110D0F80805800600287C
:1031600008D5FFE70298019900EB41112020C1F832
:10317000080564E00298019900EB4110D0F80805B9
:103180000007002816D5FFE70298019900EB4111CE
:103190000820C1F80805059A01982C2100FB01219F
:1031A000052081F86100059800689DF8041001F081
:1031B0001BFD43E00298019900EB4110D0F808058F
:1031C0004005002817D5FFE70298019900EB41114F
:1031D0004FF48060C1F80805059A01982C2100FB86
:1031E0000121082081F86100059800689DF804100D
:1031F00001F0FAFC21E00298019900EB4110D0F8AF
:1032000008050006002816D5FFE70298019900EB93
:1032100041118020C1F80805059A01982C2100FB76
:103220000121062081F86100059800689DF80410CE
:1032300001F0DAFC00E0FFE7FFE7FFE7FFE7FFE769
:10324000FFE70298019900EB4110D0F808058005CE
:1032500000280FD5FFE7059800689DF8041001F0DD
:10326000C3FC0298019900EB41114FF40070C1F8C2
:103270000805F0E10298019900EB4110D0F808052B
:10328000C007002800F0AB80FFE705980069A0B1F7
:10329000FFE70598019B2C2203FB0200806C02993A
:1032A00001EB4311D1F810156FF3DF41401A059B74
:1032B000019901FB02310865FFE7059A01982C216D
:1032C00000FB0122012082F86100059B019A02FBAC
:1032D00001330022DA65029A019B02EB4312C2F825
:1032E0000805059A019800FB012090F83F0050B1B5
:1032F000FFE7059A01982C2100FB012090F83F0080
:1033000002280ED1FFE7059800689DF8041001F02F
:103310006BFC0298019900EB41111020C1F80805DF
:1033200031E0059A01982C2100FB012090F83F0024
:1033300003280AD0FFE7059A01982C2100FB012001
:1033400090F83F0001281CD1FFE70298019900EB9B
:103350004111D1F8000540F00050C1F80005059971
:1033600001982C2200FB0211012081F860000598D1
:10337000019901FB020292F86020C9B2FDF7AEFE8E
:1033800000E0FFE7FFE70598006901281AD1FFE791
:10339000059A01982C2100FB0121886CB1F840109E
:1033A000B0FBF1F0C00760B1FFE7059A01982C214E
:1033B00000FB012191F8540080F0010081F85400D5
:1033C000FFE70BE0059A01982C2100FB012191F801
:1033D000540080F0010081F85400FFE73AE10298C0
:1033E000019900EB4110D0F808058007002840F152
:1033F000D480FFE7059A01982C2100FB012090F86A
:103400006100012809D1FFE7059A01982C2100FBF2
:103410000121012081F86000ADE0059A01982C217E
:1034200000FB012090F86100052809D1FFE7059A0B
:1034300001982C2100FB0121052081F8600099E012
:10344000059A01982C2100FB012090F861000628C4
:103450000AD0FFE7059A01982C2100FB012090F883
:10346000610008283FD1FFE7059A01982C2100FB55
:103470000122D06D0130D065059A019800FB012032
:10348000C06D03280FD3FFE7059A01982C2100FB9C
:1034900001220020D065059A019800FB012104203B
:1034A00081F860001EE0059A01982C2100FB0121A3
:1034B000022081F860000298019900EB4110D0F8D9
:1034C00000050090009820F080400090009840F0A7
:1034D0000040009000980299019A01EB4211C1F856
:1034E0000005FFE745E0059A01982C2100FB01202B
:1034F00090F8610003281FD1FFE7059A01982C215D
:1035000000FB0121022081F860000298019900EB84
:103510004110D0F800050090009820F08040009005
:10352000009840F00040009000980299019A01EB49
:103530004211C1F800051BE0059A01982C2100FBFF
:10354000012090F86100072810D1FFE7059A019843
:103550002C2100FB0122D06D0130D065059A019825
:1035600000FB0121042081F8600000E0FFE7FFE795
:10357000FFE7FFE7FFE70298019900EB4111022006
:10358000C1F80805059801992C2201FB020292F866
:103590006020C9B2FDF7A2FD5BE00298019900EB43
:1035A0004110D0F80805C006002850D5FFE7059A5D
:1035B00001982C2100FB012090F83F0003280ED138
:1035C000FFE7059A01982C2100FB01210020C86526
:1035D000059800689DF8041001F006FB2FE0059A9D
:1035E00001982C2100FB012090F83F0050B1FFE72B
:1035F000059A01982C2100FB012090F83F00022839
:103600001BD1FFE7059A01982C2100FB0121002026
:10361000C8650598006978B9FFE7059A01982C21DB
:1036200000FB0121032081F86100059800689DF8E6
:10363000041001F0D9FAFFE700E0FFE7FFE7029886
:10364000019900EB41111020C1F8080500E0FFE7E7
:10365000FFE7FFE7FFE706B080BD000080B588B058
:1036600007908DF81B100798006805900598049046
:103670009DF81B0003900498039900EB4110D0F8CB
:1036800008054007002816D5FFE70498039900EBCA
:1036900041110420C1F80805079A03982C2100FB6A
:1036A0000121062081F86100079800689DF80C1040
:1036B00001F09AFAAAE20498039900EB4110D0F8BD
:1036C00008058006002828D5FFE70498039900EB39
:1036D00041112020C1F80805079A03982C2100FB0E
:1036E000012090F83D00012816D1FFE7079A0398C2
:1036F0002C2100FB0122002082F83D00079A03984C
:1037000000FB0121022081F86000079800689DF805
:103710000C1001F069FAFFE777E20498039900EBD7
:103720004110D0F80805800500280FD5FFE7049860
:10373000039900EB41114FF40070C1F80805079898
:1037400000689DF80C1001F04FFA5DE204980399AF
:1037500000EB4110D0F80805C007B0B3FFE7079AA7
:1037600003982C2100FB01210020C86504980399CF
:1037700000EB4110D0F808054006002810D5FFE7FF
:10378000079A03982C2100FB0121012081F83D00BC
:103790000498039900EB41114020C1F80805FFE7A8
:1037A0000498039900EB41110120C1F80805079B1B
:1037B00003992C2201FB023181F86100079800680F
:1037C0009DF80C1001F010FA1DE20498039900EB2B
:1037D0004110D0F808054006002823D5FFE7079AD6
:1037E00003982C2100FB0122042082F86100079A33
:1037F000039800FB0122012082F83D00079A0398FC
:1038000000FB01210020C865079800689DF80C1096
:1038100001F0EAF90498039900EB41114020C1F846
:103820000805EFE10498039900EB4110D0F8080572
:103830000007002816D5FFE70498039900EB411113
:103840000820C1F80805079A03982C2100FB0121E4
:10385000052081F86100079800689DF80C1001F0C0
:10386000C3F9CEE10498039900EB4110D0F80805A4
:10387000C006002837D5FFE7079A03982C2100FBE4
:1038800001220020D065079A039800FB0122032043
:1038900082F86100079A039800FB012090F83D0030
:1038A00098B9FFE7079A03982C2100FB012090F8B4
:1038B0003C0048B9FFE7079A03982C2100FB01213F
:1038C000012081F83D00FFE7FFE7079800689DF8B9
:1038D0000C1001F089F90498039900EB41111020B4
:1038E000C1F808058CE10498039900EB4110D0F869
:1038F0000805000600284DD5FFE70798006978B94C
:10390000FFE7079A03982C2100FB0121062081F88C
:103910006100079800689DF80C1001F065F931E02E
:10392000079A03982C2100FB0122D06D0130D0654D
:10393000079A039800FB0120C06D032818D3FFE706
:10394000079903982C2200FB02110020C8650799F3
:10395000039800FB0211042081F860000798039986
:1039600001FB020292F86020C9B2FDF7B7FB08E044
:10397000079A03982C2100FB0121022081F86000A6
:10398000FFE7FFE70498039900EB41118020C1F89D
:10399000080534E10498039900EB4110D0F80805BC
:1039A0004005002817D5FFE7079A03982C2100FB54
:1039B0000121082081F86100079800689DF80C102B
:1039C00001F012F90498039900EB41114FF4806063
:1039D000C1F8080512E10498039900EB4110D0F8F2
:1039E00008058007002840F10781FFE7079A039840
:1039F0002C2100FB012090F86100012859D1FFE73C
:103A0000079A03982C2100FB0122012082F8600014
:103A1000079A039800FB012090F83F0002280AD083
:103A2000FFE7079A03982C2100FB012090F83F0044
:103A300003283DD1FFE70798006960B9FFE7079ABF
:103A400003982C2100FB012191F8550080F0010022
:103A500081F85500FFE707980069012827D1FFE7A3
:103A6000079A03982C2100FB0120C06CF8B1FFE7F6
:103A7000079A03982C2100FB0121C86CB1F8401073
:103A800008440138B0FBF1F001909DF80400C00734
:103A900060B1FFE7079A03982C2100FB012191F800
:103AA000550080F0010081F85500FFE7FFE7FFE7D0
:103AB00090E0079A03982C2100FB012090F8610008
:103AC000032809D1FFE7079A03982C2100FB012165
:103AD000022081F860007CE0079A03982C2100FB0B
:103AE000012090F86100042809D1FFE7079A0398A4
:103AF0002C2100FB0121022081F8600068E0079A78
:103B000003982C2100FB012090F86100052809D1C1
:103B1000FFE7079A03982C2100FB0121052081F87B
:103B2000600054E0079A03982C2100FB012090F8D4
:103B3000610006280AD0FFE7079A03982C2100FBB2
:103B4000012090F8610008283FD1FFE7079A039809
:103B50002C2100FB0122D06D0130D065079A03981B
:103B600000FB0120C06D03280FD3FFE7079A0398DD
:103B70002C2100FB01220020D065079A039800FB4E
:103B80000121042081F860001EE0079A03982C218F
:103B900000FB0121022081F860000498039900EBEA
:103BA0004110D0F800050290029820F08040029069
:103BB000029840F00040029002980499039A01EBA9
:103BC0004211C1F80005FFE700E0FFE7FFE7FFE76C
:103BD000FFE7FFE70498039900EB41110220C1F8C9
:103BE0000805079803992C2201FB020292F8602035
:103BF000C9B2FDF773FA00E0FFE7FFE7FFE7FFE771
:103C0000FFE7FFE7FFE7FFE7FFE7FFE708B080BD5B
:103C100080B586B0059005980068049004980390DC
:103C20000398D0F8400402900398D0F84004019023
:103C3000019820F02E0001900298800700280DD5F1
:103C4000FFE70298C00720B1FFE70598FDF732FAB9
:103C5000FFE7019840F002000190FFE7029800079B
:103C6000002837D5FFE7019840F00800019002983E
:103C70004007002829D5FFE705988069022814D15C
:103C8000FFE7029800F4C020B0F5802F06D1FFE7CF
:103C900005980068022101F081F805E005980068A8
:103CA000012101F07BF8FFE70BE00598C0680128CF
:103CB00006D1FFE703994EF66020C1F80404FFE740
:103CC000FFE70598FDF708FB03E00598FDF7FAFA12
:103CD000FFE7FFE702988006002805D5FFE7019877
:103CE00040F020000190FFE701980399C1F84004DB
:103CF00006B080BD80B58CB00B900B9800680A9020
:103D00000A9809900B980068006A0690069800F0DF
:103D10000F0003900698C0F3434008900698C0F344
:103D20000A1007900898023801460291052800F20F
:103D300082800299DFE801F0037E7F7D7F7E079815
:103D4000002875D0FFE70B9A03982C2100FB012077
:103D5000406C00286CD0FFE70B9A03982C2100FBE5
:103D60000120C16C006D079A1044884256D8FFE7C5
:103D70000B9B186803992C22019201FB0231496CBC
:103D8000BDF81C2001F04AF80199079B0B9A039893
:103D900000FB0122506C18445064079B0B9A039857
:103DA00000FB0122106D184410650998039A00EB7E
:103DB0004210D0F81005C0F3C94005900B9A039843
:103DC00000FB0120B0F840000799884225D1FFE7A9
:103DD000059810B3FFE70998039900EB4110D0F85C
:103DE00000050490049820F080400490049840F06E
:103DF0000040049004980999039A01EB4211C1F81C
:103E000000050B9A03982C2100FB012191F8540026
:103E100080F0010081F85400FFE708E00B9A039856
:103E20002C2100FB0121042081F86000FFE7FFE75F
:103E300002E001E0FFE7FFE70CB080BDFFE7FEE72F
:103E400080B594B0002013901290119010900F90B4
:103E5000FFE700200E9043F63000C4F20200016834
:103E600041F004010160006800F004000E900E981B
:103E7000FFE7FFE700200D9043F63000C4F2020098
:103E8000016841F080010160006800F080000D9041
:103E90000D98FFE7FFE700200C9043F63000C4F2D6
:103EA0000200016841F001010160006800F00100BA
:103EB0000C900C98FFE7FFE700200B9043F63000D2
:103EC000C4F20200016841F002010160006800F0E4
:103ED00002000B900B98FFE70020C4F20200029052
:103EE0001021019100220992FDF7C6F8099A40F2CB
:103EF0000040C4F20200059001210391FDF7BCF8D7
:103F0000039A059808210891FDF7B6F8019B0298DD
:103F1000039A09990F931092119112910FA906918A
:103F2000FCF7E0FE039B05980699099A0F931093FE
:103F300011921292FCF7D6FE039A05980699022375
:103F40000F934FF40413049310931192FCF7CAFEDD
:103F5000DDF810C005980699089B099A4FF4004EA9
:103F6000CDF83CE0CDF840C011920F93112310938F
:103F700011921292FCF7B6FE0899099A0720079051
:103F8000FDF776FA0798FDF769FA0899099A28204B
:103F90000A90FDF76DFA0A98FDF760FA14B080BD3B
:103FA00080B582B040F2B030C2F20000019043F21E
:103FB0000001C4F2010101604FF4827141600021EF
:103FC0008160C160016141614FF400728261182219
:103FD000C2610162416281620A21C162FDF79AFFFA
:103FE00018B1FFE7FCF7F0FDFFE702B080BD00006D
:103FF00080B540F20840C2F2000044F60001C4F26D
:104000000101016040F2BF3141600021816040F256
:10401000E732C26001618161FEF762FC18B1FFE71F
:10402000FCF7D2FDFFE740F20840C2F20000FEF7C5
:10403000CFFC80BD80B582B040F25040C2F200009B
:10404000019041F20001C4F2010101604FF4E1313D
:10405000416000218160C16001610C224261816187
:10406000C161FEF7ABFE18B1FFE7FCF7ADFDFFE75E
:1040700002B080BDFFE7FEE7FFE7FEE780B586B050
:10408000C2208DF814004FF0C230049000208DF84B
:104090000C000290302004A905220092FCF74CFC91
:1040A0004FF4FA70FCF798FD009A102002A9FCF773
:1040B00041FBFFE745F64060C0F6000045F6BE71E3
:1040C000C0F600019B2201F007FA45F6A970C0F680
:1040D000000001F001FA45F62760C0F6000001F08B
:1040E000FBF9FFE700208DF80700FFE79DF80700C8
:1040F000042811DCFFE79DF8071002A8425C45F692
:104100004870C0F6000001F0E7F9FFE79DF80700EE
:1041100001308DF80700E9E745F62760C0F600009A
:1041200001F0DAF900208DF80700FFE79DF807009D
:10413000042814DCFFE79DF8072002A8805C04A98E
:10414000895C884204D0FFE700208DF817000AE060
:10415000FFE79DF8070001308DF80700E6E78020B3
:104160008DF81700FFE79DF8170006B080BD00002E
:1041700088B0079006910592079800F00700049018
:104180000498C0F10700052803D3FFE7042001903D
:1041900004E00498C0F107000190FFE70198039044
:1041A00004980430062803D8FFE70020009003E0BD
:1041B000049803380090FFE700980290069803994E
:1041C000012202FA01F101390840029B9840059949
:1041D0009A40013A1140084308B0704780B540F258
:1041E000AC00C2F20000FCF781FF80BD7047000008
:1041F00080B586B004900391029204984068B0F5AF
:10420000827F13D1FFE704988068B0F5004F06D095
:10421000FFE704988068B0F5806F07D1FFE7049846
:104220000168086820F040000860FFE704984068D3
:10423000B0F5827F31D1FFE704988068B0F5806FD8
:1042400015D0FFE70498039B02996A46116080210C
:10425000002200F091F848B1FFE70499486D40F062
:104260002000486503208DF817002FE014E0049823
:10427000039B02996A4611600121002200F07CF83C
:1042800048B1FFE70499486D40F0200048650320DD
:104290008DF817001AE0FFE714E00498039B0299D9
:1042A0006A4611600121002200F066F848B1FFE77C
:1042B0000499486D40F02000486503208DF81700F0
:1042C00004E0FFE700208DF81700FFE79DF81700D6
:1042D00006B080BD80B586B004900391029240F292
:1042E0000400C2F2000000684AF6AB21CAF6AA2117
:1042F000A0FB011000094DF68361C4F21B31A0FB45
:104300000110800C4FF47A71484301900498406882
:10431000B0F5827F15D1FFE70498039B02996A46A6
:1043200011608021002200F027F848B1FFE70499CE
:10433000486D40F02000486503208DF8170017E015
:1043400012E0FFE7019808B9FFE70CE00198013897
:104350000190FFE7049800688068C1B20020B0EBCC
:10436000D11FEFD1FFE7FFE700208DF81700FFE72F
:104370009DF8170006B080BD80B58AB0DDF830C06A
:10438000089007918DF81B20059305980190FCF784
:104390008BFE024601980C99891A08440390FCF799
:1043A00083FE0290039840F20401C2F20001096802
:1043B000C1F3CB3148430490FFE708980068806858
:1043C00007990840401AB0FA80F040099DF81B1088
:1043D00088425ED0FFE705980130002858D0FFE7FB
:1043E000FCF762FE0299401A0399884204D2FFE763
:1043F0000398002842D1FFE708980168486820F038
:10440000E000486008984068B0F5827F13D1FFE76C
:1044100008988068B0F5004F06D0FFE708988068DC
:10442000B0F5806F07D1FFE708980168086820F0B1
:1044300040000860FFE70898806AB0F5005F0FD180
:10444000FFE7FFE708980168086820F4005008605B
:1044500008980168086840F400500860FFE7FFE72B
:104460000899012081F85100FFE70899002081F8A0
:104470005000FFE703208DF827000EE0049818B9DC
:10448000FFE700200390FFE7049801380490FFE75E
:1044900093E700208DF82700FFE79DF827000AB07A
:1044A00080BD00007047000080B582B00090009889
:1044B0000138B0F1807F03D3FFE70120019019E0BC
:1044C000009801384EF21401CEF2000108604FF05E
:1044D000FF300F2100F0AEFD4EF21801CEF20001C8
:1044E000002008604EF21002CEF200020721116097
:1044F0000190FFE7019802B080BD000080B5FCF795
:1045000025FF80BD80B594B008A83021FBF798FE48
:10451000002007900690059004900390FFE700208C
:10452000029043F64000C4F20200016841F080515D
:104530000160006800F0805002900298FFE7FFE7FA
:104540000020019047F20000C4F20000016841F42D
:1045500040410160006800F4404001900198FFE78D
:10456000012008904FF48030099002200E904FF403
:1045700080010F910C211091602111911290042063
:10458000139008A8FDF766F918B1FFE7FCF71CFBCC
:10459000FFE70F20039002200490002005904FF4C5
:1045A00080510691079003A80321FCF783FF18B1FF
:1045B000FFE7FCF709FBFFE714B080BD4EF688511A
:1045C000CEF20001086840F47000086070470000F7
:1045D00080B540F20840C2F20000FEF767FA80BDE5
:1045E00083B0029001910298006800900298002127
:1045F000C4F2010188421DD0FFE70298B0F1804F5C
:1046000018D0FFE7029840F20041C4F2000188424E
:1046100010D0FFE7029840F60001C4F20001884282
:1046200008D0FFE7029840F60041C4F2000188423A
:104630000AD1FFE7009820F07000009001984168CF
:10464000009808430090FFE702980021C4F201019E
:10465000884235D0FFE70298B0F1804F30D0FFE7B5
:10466000029840F20041C4F20001884228D0FFE7DE
:10467000029840F60001C4F20001884220D0FFE712
:10468000029840F60041C4F20001884218D0FFE7CA
:10469000029844F20001C4F20101884210D0FFE701
:1046A000029844F20041C4F20101884208D0FFE7B9
:1046B000029844F60001C4F2010188420AD1FFE7E2
:1046C000009820F4407000900198C1680098084359
:1046D0000090FFE7009820F08000019949690843A5
:1046E0000090009802990860019880680299C86259
:1046F000019800680299886202980021C4F20101C1
:10470000884205D1FFE70198006902990863FFE735
:1047100002990120486103B07047000080B586B05F
:10472000059005980068006920F44050059A1168CA
:10473000D26810430861059988680B694A69C9699C
:10474000184310430843049005980068C06849F274
:104750000C6188430499084305990968C860059865
:104760000068406920F44070059A1168926910430E
:1047700048610598006841F20001C4F201018842D5
:1047800009D0FFE70598006841F20041C4F2010139
:10479000884204D1FFE7FCF7D7FF039003E0FCF762
:1047A000C1FF0390FFE70598C069B0F5004F29D11C
:1047B000FFE703981921A0FB0101059A13680293F2
:1047C00053685A00DB0FFBF703FD0299864648F257
:1047D0001F53C5F2EB13AEFB0320420910014FF04B
:1047E000640C02FB1CEC322202EBCC02A2FB033273
:1047F000F82303EA521300EB4300C2F342121044C1
:10480000886026E003981921A0FB0101059A13682E
:10481000019353689A009B0FFBF7DAFC01998446D9
:1048200048F21F52C5F2EB12ACFB02304309642080
:1048300003FB10CC322000EB0C10A0FB0202F02096
:1048400000EA521000EB0310C2F3431210448860D8
:10485000FFE706B080BD000080B588B0DDF828C055
:10486000069005918DF813200393FFE706980068E2
:10487000006805990840401AB0FA80F040099DF898
:104880001310884249D1FFE70A980130002843D02D
:10489000FFE70A9840B1FFE7FCF706FC0399401ACE
:1048A0000A99884237D9FFE7FFE7FFE706980068D3
:1048B00050E8030F20F4D0700290FFE702990698A9
:1048C000026842E803100028F0D1FFE7FFE7FFE7A6
:1048D000FFE70698006850E8050F20F001000190FE
:1048E000FFE701990698026842E805100028F0D118
:1048F000FFE7FFE70699202081F83D00069981F83F
:104900003E00FFE70699002081F83C00FFE7032006
:104910008DF81F0005E0FFE7A8E700208DF81F00D5
:10492000FFE79DF81F0008B080BD000082B0019035
:104930008DF803109DF803000F280CD8FFE70198AD
:104940009DF8031000EB8101D1F888036FF3DF308D
:10495000C1F88803FFE7002002B0704782B08DF8ED
:10496000070000208DF806009DF807000146009121
:10497000032814D80099DFE801F002060A0E00208F
:104980008DF806000FE002208DF806000BE00120F4
:104990008DF8060007E002208DF8060003E00220F3
:1049A0008DF80600FFE79DF8060002B07047000092
:1049B00080B582B00190019800780B280BD1FFE7F9
:1049C0000198D0F8800330B1FFE70198D0F8801348
:1049D00089698847FFE702B080BD000081B0009080
:1049E0000099012081F820030099002081F821031B
:1049F000009981F8220301B07047000080B582B0B1
:104A000001900199012081F8210301990020009073
:104A100081F82003019981F82303019800F02AF816
:104A200001980179FFF782FF01984179FFF77EFF36
:104A3000009802B080BD000080B582B0019001995D
:104A4000D1F8C8030130C1F8C8030198FFF7B0FFDF
:104A500002B080BD81B000900099002081F823034E
:104A600001B0704781B000900099012081F82303C4
:104A700001B0704780B582B0019000208DF803002E
:104A80008DF802000198D0F8D403FCF739FC8DF8BA
:104A900003009DF80300FFF761FF8DF802009DF809
:104AA000020002B080BD000081B0009000998868CB
:104AB00020F001008860002001B0704781B00090B4
:104AC0000099886840F001008860002001B07047BC
:104AD00083B0019000200090FFE700980130009023
:104AE000009840F64151C0F20301884204D3FFE729
:104AF00003208DF80B0027E0FFE701980069C00F45
:104B00000028EAD0FFE700200090019910200861FA
:104B1000FFE7009801300090009840F64151C0F244
:104B20000301884204D3FFE703208DF80B000BE05C
:104B3000FFE70198006900F010001028E9D0FFE7B6
:104B400000208DF80B00FFE79DF80B0003B07047C5
:104B500084B00290019100200090FFE7009801309E
:104B60000090009840F64151C0F20301884204D3FE
:104B7000FFE703208DF80F0029E0FFE702980069A6
:104B8000C00F0028EAD0FFE70020009001988001C4
:104B9000203002990861FFE70098013000900098EA
:104BA00040F64151C0F20301884204D3FFE70320DD
:104BB0008DF80F000BE0FFE70298006900F020007D
:104BC0002028E9D0FFE700208DF80F00FFE79DF8CF
:104BD0000F0004B07047000081B000900098406959
:104BE00000F0010001B0704788B006908DF81710F2
:104BF000069804909DF817000390002002900498F6
:104C0000039900EB4110D0F80005C0F381400190FA
:104C10000498039900EB4110D0F80005C00F0090F4
:104C2000069880688006002807D5FFE7009820B91D
:104C3000FFE700208DF81F00A2E0019820B1FFE7F8
:104C4000019802284FD1FFE70498039900EB411126
:104C5000D1F8000540F08040C1F800050698806852
:104C6000800600283ED4FFE70698C06A10F47F0F44
:104C70002CD1FFE70498039900EB4111D1F800050E
:104C800020F00040C1F800050498039900EB4111A1
:104C9000D1F8000540F00040C1F80005FFE7029898
:104CA000013002900298B0F57A7F01D9FFE70CE05D
:104CB000FFE70498039900EB4110D0F8000500F0DD
:104CC0000040B0F1004FEAD0FFE70AE004980399F2
:104CD00000EB4111D1F8000540F00040C1F800059B
:104CE000FFE7FFE748E00498039900EB4111D1F892
:104CF000000540F08040C1F800050498D0F8100489
:104D000010F47F0F2CD1FFE70498039900EB4111B9
:104D1000D1F8000520F00040C1F80005049803997F
:104D200000EB4111D1F8000540F00040C1F800054A
:104D3000FFE70298013002900298B0F57A7F01D91E
:104D4000FFE70CE0FFE70498039900EB4110D0F86F
:104D5000000500F00040B0F1004FEAD0FFE70AE0A4
:104D60000498039900EB4111D1F8000540F0004090
:104D7000C1F80005FFE7FFE700208DF81F00FFE7FF
:104D80009DF81F0008B0704782B001900198009014
:104D90000098D0F8140480B202B0704783B002903B
:104DA0008DF80710029800900099D1F8000420F0C7
:104DB0000300C1F800049DF8070000F00302009909
:104DC000D1F800041043C1F800049DF80700012841
:104DD00006D1FFE700994BF68030C1F804040CE0DF
:104DE0009DF80700022806D1FFE7009941F2707094
:104DF000C1F8040400E0FFE7FFE7002003B07047BC
:104E000082B00190019840690090019881690098F2
:104E100008400090009802B07047000089B00890E8
:104E20000791ADF81A200898059007980490BDF8EE
:104E30001A0080080190BDF81A0000F00300ADF8D8
:104E4000020000200290FFE702980199884217D2E1
:104E5000FFE705984FF48051405804990860049882
:104E600001300490049801300490049801300490BB
:104E7000049801300490FFE7029801300290E3E7C4
:104E8000BDF8020008B3FFE70020029005984FF438
:104E9000805140580390FFE703989DF80810C9001F
:104EA000C8400499087002980130029004980130BB
:104EB0000490BDF802000138ADF80200FFE7BDF82C
:104EC00002000028E8D1FFE7FFE7049809B0704727
:104ED00080B586B0059000208DF8130005990391E8
:104EE00002900598FFF7E0FD05981021FFF730FECE
:104EF00020B1FFE701208DF81300FFE70598FFF7C9
:104F0000E7FD20B1FFE701208DF81300FFE7002047
:104F10000090FFE700980F281FD8FFE7039800993B
:104F200000EB4110D0F800050190019840F080405E
:104F30000190019820F000400190019820F4004079
:104F4000019001980399009A01EB4211C1F8000504
:104F5000FFE7009801300090DCE700200090FFE7B9
:104F600000980F2836D8FFE70398009900EB41100E
:104F7000D0F800050190019840F080400190019820
:104F800040F000400190019820F400400190019809
:104F90000399009A01EB4211C1F80005FFE702985E
:104FA000013002900298B0F57A7F01D9FFE70CE05A
:104FB000FFE70398009900EB4110D0F8000500F0DE
:104FC0000040B0F1004FEAD0FFE7FFE70098013062
:104FD0000090C5E703994FF0FF30C1F8140405991C
:104FE00048610598FFF76AFD9DF8130006B080BD83
:104FF000FFE7FEE781B08DF803009DF9030000286C
:105000000ED4FFE79DF9031001F01F02012090402C
:105010004A094EF20011CEF2000141F82200FFE7EA
:1050200001B070474EF60C50CEF200000068C0F39D
:105030000220704782B08DF8070000919DF90700AB
:1050400000280AD4FFE7009800019DF907104EF2EE
:105050000042CEF2000288540BE0009800019DF857
:10506000071001F00F014EF61452CEF200028854E0
:10507000FFE702B07047000083B00290029800F092
:10508000070000904EF60C51CEF200010868019026
:1050900001984FF6FF02104001900198009A40EAF3
:1050A00002200022C0F2FA521043019001980860D9
:1050B00003B0704780B582B00190009140F250403B
:1050C000C2F2000001A901224FF0FF33FDF74AFFB1
:1050D000019802B080BD000080B58EB00020009025
:1050E0000D90099008900790069005900490039009
:1050F0000290FCF739F9FFF705FAFEF7A1FEFEF77B
:1051000099FFFEF775FFFEF74BFFFFE745F6FA50F4
:10511000C0F6000045F69F61C0F6000100F0DCF922
:1051200045F60660C0F6000045F6D861C0F60001FD
:1051300000F0D2F945F6E250C0F6000045F686616F
:10514000C0F6000100F0C8F945F60C70C0F600008A
:1051500045F69361C0F6000145F68A62C0F600028A
:1051600000F0BAF945F62760C0F6000000F0B4F987
:10517000FFE7FBF711FDFFE745F64060C0F60000D2
:1051800045F6E561C0F600016B2200F0A5F945F691
:105190005760C0F6000000F09FF945F62760C0F6A2
:1051A000000000F099F9FFE71F208DF80800FFE7E5
:1051B00040F2A800C2F2000000788009C007002871
:1051C00000F0E680FFE740F2A801C2F20001087893
:1051D00000F0BF000870FFE745F64060C0F6000031
:1051E00045F6E561C0F60001792200F075F945F653
:1051F0000070C0F6000000F06FF945F62760C0F6B9
:10520000000000F069F9FFE70720FBF7C3FA8DF80B
:1052100007009DF807102720FBF7BEFB9DF807004D
:10522000C006002826D5FFE7FFE745F64060C0F638
:10523000000045F6E561C0F600017F2200F04CF960
:1052400045F6C960C0F6000000F046F945F6276053
:10525000C0F6000000F040F9FFE740F2A801C2F2FA
:105260000001087840F004000870E120FF21FBF7FE
:1052700093FB8CE09DF807008006002822D5FFE70D
:10528000FFE745F64060C0F6000045F6E561C0F670
:105290000001862200F020F945F6BB60C0F6000050
:1052A00000F01AF945F62760C0F6000000F014F986
:1052B000FFE740F2A801C2F20001087840F00800C0
:1052C000087063E09DF80700400600285DD5FFE701
:1052D000FFE745F64060C0F6000045F6E561C0F620
:1052E00000018B2200F0F8F845F6AD60C0F6000032
:1052F00000F0F2F845F62760C0F6000000F0ECF888
:10530000FFE740F2A800C2F2000000780009C007E1
:10531000D0BBFFE740F2A801C2F20001087840F0DC
:105320001000087040F29441C2F200016120202276
:10533000FBF700FAE220FF21FBF72EFB00208DF89F
:105340002B00FFE79DF82B001F2814DCFFE79DF8DA
:105350002B1040F29440C2F20000425C45F615600A
:10536000C0F6000000F0B8F8FFE79DF82B00013010
:105370008DF82B00E6E740F2A801C2F200010878A0
:1053800000F0EF000870FFE7FFE7FFE7FFE7FFE748
:1053900040F2A800C2F20000C1780120B0EBD11F9A
:1053A00040F09980FFE740F2A800C2F200000078C8
:1053B000C008C007002800F08E80FFE740F2A80177
:1053C000C2F20001C87800F07F00C870FFE745F620
:1053D0004060C0F6000045F6E561C0F600019E227F
:1053E00000F07AF845F67B60C0F6000000F074F833
:1053F00045F62760C0F6000000F06EF8FFE702A84F
:10540000FBF7F6F9802835D1FFE7FFE745F6406066
:10541000C0F6000045F6E561C0F60001A12200F0EB
:105420005BF845F6F860C0F6000000F055F845F668
:105430002760C0F6000000F04FF8FFE7FFE745F6F1
:105440004060C0F6000045F6E561C0F60001A2220A
:1054500000F042F89DF8091045F62170C0F60000F2
:1054600000F03AF845F62760C0F6000000F034F886
:10547000FFE719E0FFE745F62A60C0F6000045F6B1
:10548000E561C0F60001A62200F026F845F6FB60B3
:10549000C0F6000000F020F845F62760C0F60000D6
:1054A00000F01AF8FFE7FFE701208DF82B00FFE777
:1054B0009DF82B001F280DDCFFE79DF82B2002A98B
:1054C000885C01308854FFE79DF82B0001308DF88F
:1054D0002B00EDE7FFE76BE60FB4054B10B503A912
:1054E000044A029800F0DAF810BC5DF814FB0000E2
:1054F000B55000080000002002E008C8121F08C1D3
:10550000002AFAD170477047002001E001C1121F44
:10551000002AFBD1704700002DE9FF5F82B0002117
:10552000DDE90430020DDDF840B0034318D044F645
:105530001050A2F2FF3242431514119801281FD0D7
:10554000A5EB0B00401C5FEA000A4FF000064E4F2F
:10555000DFF83891B046504615D5CAF1000413E083
:10556000119801244AA3012801D16FEA0B01029886
:10557000119AC0E90031C0E9024206B0BDE8F09FCF
:10558000CBF10000DFE704460021404A491842EB16
:105590000450CDE9001012E0E00707D032463B4648
:1055A00040464946FAF733FF8046894632463B4635
:1055B00010461946FAF72BFF06460F466410002CDA
:1055C000EAD1DDE90401DDE90023BAF1000F06DAD2
:1055D000FAF71DFF42464B46FAF719FF05E0FAF7C6
:1055E00088FF42464B46FAF784FF04460E460022E7
:1055F000284BFBF705F803D84FF0FF30014607E0D2
:105600000022254B20463146FAF75AFEFAF7E0FF12
:10561000102409E0002C0ADB0A220023FAF7D8FD47
:10562000039B30321A55641E50EA0102F2D1641C09
:10563000039AC4F111031444119A012A03D00122E0
:1056400008430DD10AE0084304D000204FF0110BAD
:10565000119072E7A3EB0B056D1E0DE05B4504DDB9
:105660004FF0000205F1010504E003DA4FF00002FB
:10567000A5F10105002AECD002981199C0E9023188
:10568000C0E9004579E70000000014400000F03F49
:10569000300000000000F0430000E03F2DE9FF4F24
:1056A00095B09B468946064600250FE2252877D10E
:1056B00000242746F84A0121059400E0044316F827
:1056C000013F203B01FA03F01042F7D130782A283D
:1056D00011D06FF02F033078A0F13002092A16D8CC
:1056E000059A44F0020402EB820203EB42021044EA
:1056F000761C0590EFE759F8042B0592002A03DA8F
:10570000504244F40054059044F00204761C307872
:105710002E2816D116F8010F44F004042A280DD0C3
:105720006FF02F023078A0F13003092B09D807EB76
:10573000870302EB4303C718761CF3E759F8047B91
:10574000761C30786C280FD006DC4C2817D06828DF
:105750000DD06A2814D104E0742810D07A280FD113
:105760000DE044F400140AE044F4801401E044F431
:1057700040147278824202D104F58014761C761CA3
:10578000307866280BD013DC582877D009DC002845
:1057900075D04528F6D04628F4D047281AD19DE187
:1057A00018E0632835D0642879D0652812D195E1B6
:1057B000702873D008DC6728F1D069286FD06E2874
:1057C0000DD06F2806D1B5E073282CD0752875D080
:1057D000782874D05A46179990476D1C75E1C4F328
:1057E0000250022809D003280DD0D9F8001004284F
:1057F0000DD00D6009F1040967E1D9F80010EA172E
:10580000C1E90052F6E7D9F800100D80F2E70D70FB
:10581000F0E719F8041B8DF8001000208DF8010046
:10582000EA46012003E059F804AB4FF0FF3061076E
:105830004FF0000102D40DE008F101018846B942A1
:105840000FDA8045F8DB1AF808100029F4D108E0D7
:1058500008F1010188468142FADB1AF80810002994
:10586000F6D105985B46A0EB080721463846179A03
:1058700000F094FA284400EB080507E04DE029E128
:105880000DE01AF8010B5A4617999047B8F1010834
:10589000F7D25B4621463846179A13E142E00A22C6
:1058A0000092C4F302524FF0000A022A08D059F8BD
:1058B00004CB032A4FEAEC710AD00DE029E02AE07C
:1058C00009F1070121F00702F2E802C1914609E05F
:1058D0000FFA8CFC4FEAEC71042A03D14FFA8CFCCE
:1058E0004FEAEC71002907DA0A460021DCF1000CCE
:1058F00061EB02012D2202E0220504D52B228DF856
:105900000420012203E0E20701D02022F7E79046BD
:1059100059E00A2102E010220DE010214FF0000AA8
:1059200000910BE010224FF0000A44F00404082715
:10593000009203E008224FF0000A0092C4F30252E2
:10594000022A05D059F804CB0021032A08D009E027
:1059500009F1070121F00702F2E802C1914605E0D2
:105960001FFA8CFC042A01D10CF0FF0C4FF0000848
:10597000220728D5702806D0009B83F0100353EA35
:105980000A0305D00EE040228DF80420012208E031
:105990005CEA010206D030228DF804208DF8050063
:1059A00002229046009B83F0080353EA0A030AD1BF
:1059B0005CEA010201D1620705D530228DF804208E
:1059C0004FF001087F1E582804D034A003900EA881
:1059D00002900DE036A0F9E753466046009AFAF7C8
:1059E000F7FB84460398825C0298401E0290027086
:1059F0005CEA0100F0D1029806A9081A00F1200A19
:105A0000600702D524F4803400E00127574502DD09
:105A1000A7EB0A0000E0002000EB0A0100900598C7
:105A20004144401A0590E00306D45B462146179A8C
:105A3000059800F0B3F90544002706E001A85A468E
:105A4000C05D179990476D1C7F1C4745F6DBE0034E
:105A50000CD55B462146179A059800F09FF905443E
:105A600004E030205A46179990476D1C0099481E53
:105A700000900029F5DC08E0029802995A46007867
:105A8000491C0291179990476D1CBAF10001AAF1C7
:105A9000010AF1DC65E100000928010030313233F0
:105AA000343536373839616263646566000000005A
:105AB0003031323334353637383941424344454644
:105AC0000000000000F058F90544761C30780028EA
:105AD0007FF4ECAD19B02846BDE8F08F620700D422
