:020000040800F2
:10000000680F0020AD010008594F00088D4C000812
:10001000554F0008F910000865A200080000000014
:1000200000000000000000000000000085530008F0
:100030009111000800000000CD500008DD530008B9
:10004000C7010008C7010008C7010008C701000870
:10005000C7010008C7010008C7010008A111000876
:10006000C7010008C7010008C7010008C701000850
:10007000C7010008C7010008C7010008C701000840
:10008000C7010008C7010008C70100080000000000
:10009000000000000000000000000000C701000890
:1000A000C7010008C7010008B1540008C7010008D3
:1000B000C7010008C7010008C7010008C701000800
:1000C000C7010008C7010008C7010008C7010008F0
:1000D000C7010008C7010008C701000800000000B0
:1000E00095110008C7010008C701000800000000C2
:1000F000000000000000000000000000C701000830
:1001000000000000C7010008C7010008C70100087F
:1001100000000000000000000000000000000000DF
:10012000C7010008C7010008C7010008C70100088F
:10013000C7010008000000000000000000000000EF
:10014000000000000000000000000000BD5000089A
:10015000C7010008C7010008C7010008C70100085F
:10016000C7010008C70100080000000000000000EF
:10017000000000000000000000000000000000007F
:1001800000000000C701000800000000000000009F
:10019000C7010008C7010008DFF80CD000F048FADA
:1001A000004800474DA30008680F0020064880471C
:1001B00006480047FEE7FEE7FEE7FEE7FEE7FEE74C
:1001C000FEE7FEE7FEE7FEE79D5400089901000800
:1001D0002DE9F05F0546002092469B46884606467C
:1001E000814640241BE0284641464746224600F00F
:1001F00057F853465A46C01A914110D31146184633
:10020000224600F03EF82D1A67EB01084F462246C1
:100210000120002100F035F817EB00094E41201EA7
:10022000A4F10104DFDC484631462A464346BDE8D6
:10023000F09FD2B201E000F8012B491EFBD27047BB
:100240000022F6E710B513460A4604461946FFF7A2
:10025000F0FF204610BD30B50B460146002020229D
:10026000012409E021FA02F59D4205D303FA02F5C3
:10027000491B04FA02F52844151EA2F10102F1DC23
:1002800030BD202A04DB203A00FA02F1002070473A
:100290009140C2F1200320FA03F3194390407047C4
:1002A000202A04DB203A21FA02F00021704721FACB
:1002B00002F3D040C2F12002914008431946704732
:1002C0002DE9FE4F804681EA0300C00F0C460090E6
:1002D00021F0004123F00045B8EB0200A94105D20E
:1002E0004046214690461C460B46024623F00040FD
:1002F000104347D0270DC7F30A00C3F30A510290F9
:10030000401A019040286BDAC3F3130040F4801BBD
:100310000098924620B10023D2EB030A63EB0B0B4B
:1003200001985946C0F140025046FFF7AAFF064621
:100330000D4650465946019A00F08CF910EB080022
:100340006141002487EA115284EAE7731A4340D0DE
:10035000009A62B3019A012A4FEA075215DC001B8A
:1003600061EB02014FF0004202EA0752CDE9004280
:10037000001C41F5801132462B4600F08CF903B089
:10038000BDE8F08F40462146F9E7001B61EB020112
:10039000001C41F5801300185B412018A2F50017DE
:1003A00047EB030140EAD570B6196D4111E06D08C5
:1003B0004FEA360645EAC0754FEA0752001B61EB6B
:1003C0000201001C41F5801149084FEA3000001974
:1003D000514132462B4603B0BDE8F04F00F04CB916
:1003E0000098012240000023D0EB020263EBE0738F
:1003F000009821464FEAE074B8EB000061EB04017D
:10040000E9E783F000435BE781F0004158E72DE91D
:10041000FE4F81EA030404F0004421F000410094FF
:100420004FF0000B23F0004350EA01045ED052EA83
:1004300003045BD0C3F30A54C1F30A552C44A4F25D
:10044000F3340194A0FB0254C1F3130141F4801171
:10045000C3F3130343F4801301FB024400FB034E78
:10046000840A970A44EA815447EA8357A4FB076841
:1004700002958D0A05FB07854FEA932C04FB0C546B
:100480002705029D4FEA065847EA1637B5EB0805DF
:100490006EEB070C870E920E47EA811742EA831231
:1004A000A7FB0201B6EB0B0164EB00042B0D43EA42
:1004B0000C335E1844EB1C50DA465146E7FB020150
:1004C000C5F313044FEA0B3343EA14534FEA0432E3
:1004D000019C43EA0603A4F10C040294009CCDE9BC
:1004E00000B400F0D8F803B0BDE8F08F002001465A
:1004F000F9E72DE9F04D81EA030404F0004B21F007
:10050000004514464FF0000A23F0004150EA05026E
:1005100020D054EA01021DD0C5F30A570246C5F3A4
:100520001303C1F31300C1F30A5640F4801543F4DA
:100530008013A7EB0608101BD64608F2FD3873EBB4
:10054000050002D308F1010801E092185B41B8F1FF
:10055000000F03DA00200146BDE8F08D00204FF4C3
:100560008011064684460EE0171B73EB050705D382
:10057000121B63EB050306434CEA010C49084FEAE2
:10058000300092185B4150EA0107EDD152EA0300B6
:1005900012D082EA040083EA0501084305D0101B4B
:1005A000AB4106D20122002306E000224FF00043B7
:1005B00002E06FF0010253101AEB06004CEB0851F9
:1005C00010EB0A0041EB0B01BDE8F04D00F054B810
:1005D000C1F30A52C1F3130140F2FF3341F4801119
:1005E0009A4202DA00200146704740F233439A42B1
:1005F000A2F2334202DC5242FFF752BEFFF741BE85
:1006000030B5041E71F1000404DB4FF00044404299
:1006100064EB0101141E73F1000405DB1C464FF06E
:100620000043524263EB0403994208BF904230BD3D
:10063000064C074D06E0E06840F0010394E807002F
:1006400098471034AC42F6D3FFF7AAFD54B6000821
:1006500074B60008202A06DBCB17203A41FA02F0D4
:1006600043EAE07306E041FA02F3D040C2F120020F
:10067000914008431946704710B5141E73F10004E9
:1006800008DA401C41F1000192185B411A4301D184
:1006900020F0010010BD2DE9F04D92469B4611B1AE
:1006A000B1FA81F202E0B0FA80F220329046FFF710
:1006B000E8FD04460F4640EA0A0041EA0B015346B2
:1006C0005A46084313D0114653EA010019D0C8F125
:1006D00040025046FFF7E4FD05460E465046594697
:1006E0004246FFF7CEFD084305D0012004E0204636
:1006F0003946BDE8F08D0020054346EAE0762C43FC
:1007000037430A986305E40AA0EB08000022FD0ABB
:1007100044EA47540A3002D500200146E9E70105C2
:1007200010196941DDE9084500196941BDE8F04D3E
:10073000A2E7000080B58AB08DF8270008918DF8F7
:100740001F200020C4F20200069010210491002214
:1007500000F08AFF694664200290086040F6280095
:10076000C2F2000003900DF127010DF11E020123DA
:10077000059302F077FD029B039808999DF81F20CE
:1007800002F016FB0499059A069800F06DFF0AB076
:1007900080BD000080B588B08DF81F000020C4F235
:1007A0000200069010210491002200F05DFF6946CE
:1007B00064200290086040F62800C2F20000039016
:1007C0000DF11F010DF11D020123059302F04AFDF9
:1007D000029B059A03980DF11E0102F0E9FA0499B3
:1007E000059A069800F040FF9DF81E0008B080BDF5
:1007F00080B58EB00D908DF83310FFE740F24410B5
:10080000C2F2000000784008C00708B9FFE7F5E72A
:100810009DF833008DF812000D980DF11201019131
:1008200001319DF8332000F0E3F940F20040C4F2BA
:100830000200029001210391002200F015FF0199AE
:10084000A020202200F086F80298039A40F2441378
:10085000C2F20003197801F0FD011970114600F091
:1008600003FF80200EB080BD80B584B040F2004010
:10087000C4F202000121002200F0F6FE40F2540111
:10088000C2F2000130200522019200F063F8019AC3
:1008900010200DF10A01FFF74DFFFFE74AF6D76080
:1008A000C0F600004BF23161C0F600014F2209F0A2
:1008B000C5FD4BF21C60C0F6000009F0BFFD4AF612
:1008C000D460C0F6000009F0B9FDFFE700208DF804
:1008D0000F00FFE79DF80F00042812DCFFE79DF8EA
:1008E0000F100DF10A00425C4BF2BB50C0F6000045
:1008F00009F0A4FDFFE79DF80F0001308DF80F000F
:10090000E8E74AF6D460C0F6000009F097FD40F22F
:100910005401C2F200012A20052200F01BF8212018
:100920000121009100F046F80099222000F042F8E1
:1009300024201A2100F03EF82520282100F03AF862
:1009400026200F2100F036F820200E2100F032F88A
:1009500004B080BD80B58AB08DF8270008918DF86D
:100960001F200020C4F202000690102104910022F2
:1009700000F07AFE694664200290086040F6280084
:10098000C2F2000003900DF127010DF11E020123B8
:10099000059302F067FC029B039808999DF81F20BD
:1009A00002F01EFB0499059A069800F05DFE0AB05D
:1009B00080BD000080B588B08DF81F008DF81E1036
:1009C0000020C4F20200069010210491002200F0E1
:1009D0004BFE694664200290086040F62800C2F28F
:1009E000000003900DF11F010DF11D02012305937D
:1009F00002F038FC029B059A03980DF11E0102F0EB
:100A0000EFFA0499059A069800F02EFE08B080BD12
:100A100080B58AB0962000F0D1FB0020C4F202001D
:100A20001021012200F020FE0DF10700AA211F2253
:100A300000F0FAF840F64410C2F200000021202233
:100A400000F0F2F8FFE704F089FAF0B9FFE7FFE7FA
:100A50004BF2A550C0F600004BF23161C0F6000128
:100A6000C02209F0EBFC4BF2CF50C0F6000009F0B9
:100A7000E5FC4AF6D460C0F6000009F0DFFCFFE7B1
:100A80004FF4FA7000F09AFBDDE7FFE74AF6D76013
:100A9000C0F600004BF23161C0F60001C42209F03B
:100AA000CDFC4BF2F450C0F6000009F0C7FC4AF64A
:100AB000D460C0F6000009F0C1FCFFE70720FFF793
:100AC00069FE8DF826009DF826102720FFF772FF9B
:100AD000FFF7CAFE0DF107001F21FFF789FE0AB0DC
:100AE00080BD000040F24011C2F200010020086009
:100AF00040F23C11C2F20001086040F23811C2F22B
:100B00000001086040F24411C2F2000102200860B6
:100B10007047000040F23810C2F200000078C007B1
:100B200088B1FFE740F23C11C2F20001087840F0C2
:100B30000100087040F23811C2F20001087800F09C
:100B4000FE000870FFE7704784B003908DF80B102B
:100B50008DF80A20002001900398007818B9FFE76B
:100B60000120019000E0FFE79DF80A0003998870DA
:100B70009DF80B00039948709DF80B000146009109
:100B800002280CD0FFE7009803280CD0FFE700985C
:100B900004280CD1FFE703990A2088800BE0039911
:100BA0001920888007E003996420888003E0039976
:100BB00000208880FFE7019840F24011C2F2000156
:100BC0000860002004B0704780B540F27001C2F2A6
:100BD000000140F2F000C2F2000008600021017044
:100BE0004170817003210122FFF7AEFF80BD00003C
:100BF00083B002900191ADF80220BDF80200ADF87B
:100C00000000FFE7BDF8000060B1FFE7BDF800009D
:100C10000138ADF800000298BDF80020805C019911
:100C20008854EFE703B0704783B002908DF8071047
:100C3000ADF80420BDF80400ADF80200FFE7BDF8F0
:100C4000020060B1FFE7BDF802000138ADF8020014
:100C50009DF807000299BDF802208854EFE703B021
:100C60007047000080B582B040F23810C2F2000038
:100C700000784008C007002874D0FFE70720FFF77E
:100C800089FD8DF807009DF807102720FFF792FED9
:100C90009DF80700C00600280DD5FFE740F244117B
:100CA000C2F20001087840F001000870E120FF2145
:100CB000FFF780FE4DE09DF807008006002809D56B
:100CC000FFE740F24411C2F20001087840F0020050
:100CD00008703DE09DF807004006002837D5FFE783
:100CE00040F24410C2F2000000788008C00768BBE0
:100CF000FFE740F24411C2F20001087840F004001E
:100D0000087040F64411C2F2000161202022FFF772
:100D100011FDE220FF21FFF74DFE00208DF80600B7
:100D2000FFE79DF806001F2807DCFFE7FFE79DF8B7
:100D3000060001308DF80600F3E740F24411C2F2DC
:100D40000001087800F0FB000870FFE7FFE7FFE70D
:100D5000FFE740F23811C2F20001087800F0FD0010
:100D60000870FFE702B080BD80B5FFF7BBFEFFF75C
:100D70002BFFFFF74DFE80BD80B584B040F23810E8
:100D8000C2F2000000788008C007002800F021812E
:100D9000FFE740F23C10C2F200000078C0070028D4
:100DA00065D0FFE70020C4F202004FF4004100F0DC
:100DB0002FFC012828D1FFE740F20C01C2F200010C
:100DC000C820087040F23C11C2F20001087800F01F
:100DD000FE000870FFE74AF6D760C0F600004BF24D
:100DE0008351C0F600019C2209F028FB4BF276509B
:100DF000C0F6000009F022FB4AF6D460C0F60000FD
:100E000009F01CFBFFE731E00020C4F202004FF4C0
:100E1000004100F0FDFB40BBFFE740F20C00C2F2D6
:100E200000000078C82820D1FFE740F20C01C2F290
:100E3000000100200870FFE74AF6D760C0F6000006
:100E40004BF28351C0F60001A12209F0F7FA4BF2F0
:100E50006750C0F6000009F0F1FA4AF6D460C0F617
:100E6000000009F0EBFAFFE7FFE7FFE7FFE740F2DA
:100E70004010C2F20000006838B3FFE740F24010B3
:100E8000C2F2000002900298006801281BD1FFE71F
:100E900040F26801C2F2000140F20040C4F20200D8
:100EA000086040F26C01C2F200010820088002993B
:100EB000086820F00100086040F27000C2F20000F3
:100EC0000068019000E0FFE7FFE7019840780146E5
:100ED000009120B1FFE70098012814D027E040F2EC
:100EE0000D01C2F20001FF20087040F26800C2F25A
:100EF0000000006840F26C01C2F200010988012282
:100F000000F0B2FB2CE040F20D01C2F20001FF2024
:100F1000087040F26800C2F20000006840F26C0104
:100F2000C2F200010988002200F09EFB18E001983F
:100F30004078022813DBFFE70198407804280EDC94
:100F4000FFE740F20D01C2F2000100200870019895
:100F5000808840F26401C2F200010880FFE7FFE7E9
:100F600040F20D00C2F20000007848BBFFE740F2FB
:100F70006200C2F20000008840F26401C2F2000187
:100F80000988884213DDFFE740F26201C2F20001E6
:100F90000020088040F26800C2F20000006840F2C1
:100FA0006C01C2F20001098800F04AFB07E040F240
:100FB0006201C2F20001088801300880FFE7FFE704
:100FC00040F23811C2F20001087800F0FB0008700E
:100FD000FFE740F23810C2F200000078C008C007F6
:100FE000002842D0FFE740F20C00C2F20000007877
:100FF000042808DCFFE740F20C01C2F20001087887
:101000000130087028E040F20C00C2F200000078C5
:10101000C72820DCFFE740F20C01C2F200010520E6
:101020000870FFE74AF6D760C0F600004BF2835124
:10103000C0F60001E72209F001FA4BF26750C0F652
:10104000000009F0FBF94AF6D460C0F6000009F090
:10105000F5F9FFE7FFE7FFE740F23811C2F20001C0
:10106000087800F0F7000870FFE740F23810C2F28D
:10107000000000780009C007D8B3FFE740F2441031
:10108000C2F200000078C008C00740B1FFE740F29C
:101090002C10C2F200000C21FFF7AAFBFFE70C2086
:1010A0008DF80F00FFE79DF80F0098B1FFE79DF85E
:1010B0000F0001388DF80F009DF80F1040F22C1032
:1010C000C2F20000415C4BF2A050C0F6000009F0F3
:1010D000B5F9E8E74AF6D460C0F6000009F0AEF9C9
:1010E00040F23811C2F20001087800F0EF000870F9
:1010F000FFE704B080BD0000FFE7FEE782B001908B
:10110000002000900090FFE700980F280CD8FFE720
:101110000198009900EB81010020C1F88803FFE7E6
:10112000009801300090EFE700200090FFE7009961
:101130000020B0EB512F0BD1FFE70198009901443B
:10114000002081F81C01FFE7009801300090EEE7D5
:1011500001990020087001994870019A012191704D
:10116000019AC2F8C803019A1176019B40229A7134
:10117000019A5076019A82F81C03019A82F81D1395
:10118000019981F81F03019981F81E0302B070478D
:101190007047000080B54FF4004000F06BF880BD50
:1011A00080B5022000F066F880BD000081B0EFF34A
:1011B000108072B60090FFE7FEE7000080B584B0B3
:1011C000039000F069FA02900398019001980130B1
:1011D00048B1FFE740F25900C2F2000001780198DF
:1011E00008440190FFE7FFE700F056FA0299401A21
:1011F0000199884201D2FFE7F6E704B080BD000004
:1012000080B582B0ADF80600BDF806000146009139
:10121000022818D0FFE70098B0F5004F26D1FFE76D
:101220000020C4F202004FF4004100F0F1F948B987
:10123000FFE740F23811C2F20001087840F00100E7
:101240000870FFE713E040F20040C4F20200022100
:1012500000F0DEF948B9FFE740F23811C2F20001B0
:10126000087840F002000870FFE700E0FFE702B0F6
:1012700080BD000080B582B0ADF8060043F6144092
:10128000C4F201000068BDF8061008420CD0FFE768
:10129000BDF8060043F61441C4F201010860BDF830
:1012A0000600FFF7ADFFFFE702B080BD8BB00A90EC
:1012B000099100200790069005900890FFE7089894
:1012C0000F2800F2A281FFE70899012088400790CB
:1012D000099800680799084006900698079988427F
:1012E00040F08E81FFE70998406800F00300012874
:1012F00007D0FFE70998406800F0030002282FD1CB
:10130000FFE70A988068059008984100032000FADA
:1013100001F10598884305900998C068089949002B
:1013200000FA01F105980843059005980A9988602C
:101330000A98406805900899012000FA01F1059883
:101340008843059009984068C0F30010089900FA96
:1013500001F105980843059005980A994860FFE750
:101360000998406800F00300032818D0FFE70A98A6
:10137000C068059008984100032000FA01F1059823
:1013800088430590099880680899490000FA01F19E
:1013900005980843059005980A99C860FFE70998E1
:1013A000406800F00300022826D1FFE70A98089958
:1013B0006FF0030202EA51010844006A05900898A0
:1013C00000F0070081000F2000FA01F10598884322
:1013D000059009980069089901F00701890000FA51
:1013E00001F105980843059005980A99089B02EABF
:1013F000530211440862FFE70A98006805900898B4
:101400004100032000FA01F10598884305900998EE
:10141000406800F003000899490000FA01F10598BE
:101420000843059005980A99086009988079800713
:10143000002800F0E480FFE7FFE70020049043F677
:101440004400C4F20200016841F480410160006878
:1014500000F4804004900498FFE7089820F003000F
:1014600043F60801C4F2010140580590089800F0C5
:10147000030081000F2000FA01F1059888430590D0
:101480000A980021C4F20201884203D1FFE700203C
:10149000039034E00A9840F20041C4F2020188420D
:1014A00003D1FFE70120029026E00A9840F60001F0
:1014B000C4F20201884203D1FFE70220019018E044
:1014C0000A9840F60041C4F20201884203D1FFE7C6
:1014D000032000900AE00A9941F20002C4F20202DD
:1014E0000720914208BF04200090FFE70098019078
:1014F000FFE701980290FFE702980390FFE7039847
:10150000C0B2089901F00301890000FA01F10598C1
:10151000084305900598089921F0030143F6080255
:10152000C4F20102885043F60840C4F2010000688A
:101530000590069905988843059009988079C0061A
:10154000002805D5FFE70699059808430590FFE7B1
:10155000059843F60841C4F20101086043F60C40C7
:10156000C4F201000068059006990598884305902B
:10157000099880798006002805D5FFE70699059827
:1015800008430590FFE7059843F60C41C4F20101BA
:10159000086043F60440C4F2010000680590069913
:1015A000059888430590099880798007002805D51B
:1015B000FFE70699059808430590FFE7059843F66D
:1015C0000441C4F20101086043F60040C4F2010086
:1015D00000680590069905988843059009988079D8
:1015E000C00728B1FFE70699059808430590FFE773
:1015F000059843F60041C4F201010860FFE7FFE7E8
:10160000FFE708980130089059E60BB070470000DA
:1016100082B00190ADF8021001980069BDF8021087
:10162000084204D0FFE701208DF8010003E000200C
:101630008DF80100FFE79DF8010002B0704700003F
:1016400083B00290ADF80610029840690090009AAD
:10165000BDF8060002EA0001904340EA0140029909
:10166000886103B07047000082B00190ADF80210AD
:101670008DF801209DF8010028B1FFE7BDF80200B8
:101680000199886105E0BDF80200000401998861B4
:10169000FFE702B07047000040F66410C2F200009D
:1016A0000068704780B582B001900198D0F80003BF
:1016B00005F014FF02B080BD80B582B001900198A2
:1016C000D0F8000305F01AFF02B080BD80B582B0EB
:1016D00001900198006807F0A3FF02B080BD0000F0
:1016E00080B582B001900198006807F0A3FF02B0B6
:1016F00080BD000082B001908DF80310019A9DF822
:1017000003002C2110FB012090F8600002B070470C
:1017100082B001908DF80310019A9DF803002C21EE
:1017200010FB0120006D02B07047000080B584B04E
:1017300002908DF8071000208DF80600FFE7029850
:1017400090F8F802012804D1FFE702208DF80F007D
:1017500016E00299012081F8F802FFE7FFE70298FE
:1017600000689DF8071007F07DFFFFE70299002051
:1017700081F8F802FFE79DF806008DF80F00FFE7FB
:101780009DF80F0004B080BDB0B588B094468E4679
:1017900004460E980D990C9A06948DF817E08DF872
:1017A00016C08DF815308DF814208DF81310ADF893
:1017B0001000FFE7069890F8F802012804D1FFE72F
:1017C00002208DF81F0083E00699012081F8F802BD
:1017D000FFE7FFE706999DF817002C2210FB021186
:1017E000002081F83D009DF81500069B9DF817101C
:1017F00011FB023181F83800BDF81000069B9DF8FE
:10180000171011FB0231A1F840009DF8170006994E
:1018100010FB021181F839009DF81300069B9DF81A
:10182000171011FB023181F83F009DF8160000F0FF
:101830007F00069B9DF8171011FB023181F83A00DA
:101840009DF81600000600280AD5FFE7069A9DF8C5
:1018500017002C2110FB0121012081F83B0009E039
:10186000069A9DF817002C2110FB0121002081F819
:101870003B00FFE79DF81400069B9DF817102C22F3
:1018800011FB023181F83C00069800689DF81710A2
:101890009DF816209DF815309DF814C09DF8134052
:1018A000BDF81050EE46CEF80850CEF80440CEF801
:1018B00000C007F0A7FF8DF80F00FFE70699002092
:1018C00081F8F802FFE79DF80F008DF81F00FFE791
:1018D0009DF81F0008B0B0BD82B001908DF80310D4
:1018E0008DF8022002B07047B0B584B094468E46A1
:1018F00004460B980A99099A089A03948DF80BE00C
:101900008DF80AC08DF809308DF80820ADF8061062
:101910008DF805009DF80A00039B9DF80B102C2202
:1019200011FB023181F83B009DF80900039B9DF8F3
:101930000B1011FB023181F83F009DF8080098B9A7
:10194000FFE703999DF80B002C2210FB02110320E6
:1019500081F842009DF80500039B9DF80B1011FBD8
:10196000023181F83D0009E0039A9DF80B002C211B
:1019700010FB0121022081F84200FFE79DF80900D9
:1019800001460091032800F2CC800099DFE801F0C5
:1019900002BF397C9DF80800012831D1FFE79DF88E
:1019A0000A0068BBFFE7BDF8060050B9FFE7039ADD
:1019B0009DF80B002C2110FB0121012081F855001E
:1019C000FFE7039A9DF80B002C2110FB012090F8F3
:1019D000550050B9FFE7039A9DF80B002C2110FB2E
:1019E0000121002081F8420009E0039A9DF80B00D4
:1019F0002C2110FB0121022081F84200FFE7FFE7C4
:101A000090E09DF80A00F8B9FFE7039A9DF80B00F3
:101A10002C2110FB012090F8550050B9FFE7039AE4
:101A20009DF80B002C2110FB0121002081F84200C1
:101A300009E0039A9DF80B002C2110FB01210220E4
:101A400081F84200FFE71EE0039A9DF80B002C216D
:101A500010FB012090F8540050B9FFE7039A9DF85D
:101A60000B002C2110FB0121002081F8420009E02D
:101A7000039A9DF80B002C2110FB0121022081F814
:101A80004200FFE7FFE74DE09DF80A00F8B9FFE7E5
:101A9000039A9DF80B002C2110FB012090F85500B3
:101AA00050B9FFE7039A9DF80B002C2110FB012190
:101AB000002081F8420009E0039A9DF80B002C21D8
:101AC00010FB0121022081F84200FFE71EE0039A8B
:101AD0009DF80B002C2110FB012090F8540050B908
:101AE000FFE7039A9DF80B002C2110FB0121002039
:101AF00081F8420009E0039A9DF80B002C2110FBAD
:101B00000121022081F84200FFE7FFE70AE0039A83
:101B10009DF80B002C2110FB0121002081F84200D0
:101B200000E0FFE70998039A9DF80B102C2311FBA6
:101B300003214864BDF80600039A9DF80B1011FBC1
:101B40000321C86403999DF80B0010FB03110020CA
:101B500081F86000039A9DF80B1011FB03210865C2
:101B60009DF80B10039A11FB032282F83910039A97
:101B70009DF80B1011FB032181F86100039A106896
:101B80009DF80B1011FB03213831127C07F056FF32
:101B900004B0B0BD80B586B005900598006804908B
:101BA000049803900598006807F054FD012840F060
:101BB000DB80FFE70598006808F084F908B9FFE7C3
:101BC000D2E00598006808F07DF98002002806D56B
:101BD000FFE7059801684FF400104861FFE705989A
:101BE000006808F06FF9C002002806D5FFE70598E5
:101BF00001684FF480104861FFE70598006808F01D
:101C000061F94001002806D5FFE7059801684FF00B
:101C100080604861FFE70598006808F053F9800785
:101C2000002805D5FFE70598016802204861FFE715
:101C30000598006808F046F9800000281CD5FFE7E9
:101C4000059801684FF0005048610398D0F84004AF
:101C5000C00780B9FFE70498102107F09DFC0498A5
:101C600007F05AFC05980068012108F0F9F805987A
:101C7000FFF722FDFFE7FFE70598006808F022F96B
:101C8000C001002804D5FFE7059802F043FEFFE7F6
:101C90000598006808F016F90007002808D5FFE746
:101CA000059800F07DF90598016808204861FFE774
:101CB0000598006808F006F900F010010020B0EB6C
:101CC000111F10D0FFE705980168886920F0100007
:101CD0008861059802F090FE05980168886940F0D7
:101CE00010008861FFE70598006808F0EBF88001B4
:101CF000002838D5FFE70598006807F095FE0190A9
:101D000000200290FFE7029805998968884224D252
:101D1000FFE70198029901F00F01C840C007B8B170
:101D2000FFE70398029900EB4110D0F8000500048A
:101D3000002806D5FFE705989DF8081002F03CF84A
:101D400005E005989DF8081002F00AFBFFE7FFE7A1
:101D5000FFE7029801300290D5E7059801684FF03F
:101D600000704861FFE7FFE706B080BD2DE9F04F46
:101D700095B01390139820B9FFE701208DF8530018
:101D800093E0139800681290139890F8F90240B904
:101D9000FFE71399002081F8F802139800F08AF801
:101DA000FFE71399032081F8F9021298C06BC00570
:101DB000002804D4FFE7139900200861FFE7139877
:101DC000006807F031FB13980B9001680C91416893
:101DD0008268C368D0F810C044698569C669076A1B
:101DE000D0F82480D0F82890D0F82CA0D0F830B0CB
:101DF000D0F834E068460D90C0F824E00C98DDF887
:101E000034E0CEF820B0CEF81CA0CEF81890CEF872
:101E10001480CEF81070CEF80C60CEF80850CEF8D2
:101E20000440CEF800C007F03FFA13980068012183
:101E3000119108F0D5F813980E9001680F91416840
:101E40008268C368D0F810C044698569C669076AAA
:101E5000D0F82480D0F82890D0F82CA0D0F830B05A
:101E6000D0F834E068461090C0F824E00F98DDF810
:101E700040E0CEF820B0CEF81CA0CEF81890CEF8F6
:101E80001480CEF81070CEF80C60CEF80850CEF862
:101E90000440CEF800C007F00DFF1198139981F8A7
:101EA000F90200208DF85300FFE79DF8530015B0AC
:101EB000BDE8F08F80B58AB00990002008900790A7
:101EC00006900590049009980068B0F1A04F47D1A2
:101ED000FFE7FFE70020039043F63000C4F2020062
:101EE000016841F001010160006800F00100039009
:101EF0000398FFE74FF4C0500490022005900020A3
:101F00000690032007900A2008900020C4F20200E7
:101F100004A9FFF7CBF9FFE743F63401C4F202014D
:101F2000086840F080000860FFE70020029043F658
:101F30004400C4F20200016841F48041016000687D
:101F400000F4804002900298FFE7FFE743200190F1
:101F50000022114600F012F9019800F005F9FFE7A0
:101F60000AB080BD80B582B001900198D0F800031E
:101F700005F0C6FB02B080BD80B582B0019001982B
:101F8000D0F8000305F0C4FB02B080BD80B582B07C
:101F900001900198006807F0FDFF02B080BD0000CD
:101FA00080B582B001900198D0F8000305F024FBC1
:101FB00002B080BD80B582B00090FFE7009890F835
:101FC000F802012804D1FFE702208DF8070018E08D
:101FD0000099012081F8F802FFE7FFE70098006808
:101FE000012107F05BFA0098006807F08BFAFFE721
:101FF0000099002081F8F802FFE700208DF8070023
:10200000FFE79DF8070002B080BD000080B582B0F8
:102010000090FFE7009890F8F802012804D1FFE74C
:1020200002208DF8070013E00099012081F8F802E2
:10203000FFE7FFE70098006808F042F8FFE7009923
:10204000002081F8F802FFE700208DF80700FFE785
:102050009DF8070002B080BD40F25900C2F20000B6
:10206000027840F66411C2F200010868104408606A
:102070007047000080B543F60041C4F202010868D1
:1020800040F400700860086840F4806008600868E8
:1020900040F480700860032000F08AF80F2000F000
:1020A00005F800F03BF8002080BD000080B582B04C
:1020B000009040F23000C2F20000006840F2590186
:1020C000C2F200010A784FF47A71B1FBF2F1B0FB71
:1020D000F1F001F07BFA20B1FFE701208DF8070055
:1020E00018E000980F280DD8FFE700994FF0FF3057
:1020F000002200F043F8009840F25C01C2F20001B7
:10210000086003E001208DF8070003E000208DF84F
:102110000700FFE79DF8070002B080BD82B0FFE72F
:102120000020019043F64400C4F20200016841F42B
:1021300080410160006800F4804001900198FFE751
:10214000FFE70020009043F64000C4F2020001685F
:1021500041F080510160006800F0805000900098CC
:10216000FFE702B07047000080B582B08DF807002D
:102170009DF9070008F078F802B080BD80B586B000
:102180008DF81700049103920020029008F084F863
:1021900002909DF91700019002980499039A02F0A9
:1021A00057FF0146019808F07FF806B080BD000097
:1021B00080B582B00190019808F098F802B080BD17
:1021C00080B584B002900191029820B9FFE7012008
:1021D0008DF80F0021E1019843F60041C4F202019D
:1021E000096801F00701884212D9FFE7019943F617
:1021F0000040C4F202000170006800F0070001997D
:10220000884204D0FFE701208DF80F0005E1FFE7C9
:1022100002980078800700282AD5FFE70298007806
:102220004007002809D5FFE743F60801C4F2020180
:10223000086840F4E0500860FFE702980078000763
:10224000002809D5FFE743F60801C4F20201086837
:1022500040F460400860FFE743F60801C4F2020161
:10226000086820F0F000029A926810430860FFE7C7
:1022700002980078C00700286ED0FFE702984068F7
:10228000012811D1FFE743F60000C4F20200006804
:1022900000F400310020B0EB514F04D1FFE70120E2
:1022A0008DF80F00B9E02CE002984068022805D0B4
:1022B000FFE702984068032811D1FFE743F60000CA
:1022C000C4F20200006800F000710020B0EB516F12
:1022D00004D1FFE701208DF80F009EE010E043F6E7
:1022E0000000C4F20200006800F002010020B0EB20
:1022F000510F04D1FFE701208DF80F008DE0FFE7BB
:10230000FFE743F60801C4F20201086820F0030069
:10231000029A526810430860FFF7BEF90090FFE789
:1023200043F60800C4F20200006800F00C000299B5
:102330004968B0EB810F0ED0FFE7FFF7ADF90099C8
:10234000401A41F28931884204D3FFE703208DF817
:102350000F0062E0E4E7FFE7019843F60041C4F2B2
:102360000201096801F00701884212D2FFE70199D2
:1023700043F60040C4F202000170006800F007005C
:102380000199884204D0FFE701208DF80F0044E056
:10239000FFE702980078400700280CD5FFE743F6D6
:1023A0000801C4F20201086820F4E050029AD268E1
:1023B00010430860FFE702980078000700280DD559
:1023C000FFE743F60801C4F20201086820F4604008
:1023D000029A126940EAC2000860FFE700F04CF878
:1023E00043F60801C4F202010968C9B20A094AF6B3
:1023F000EC51C0F60001895CC84040F23001C2F2E5
:102400000001086040F25C00C2F200000068FFF7C3
:102410004DFE00208DF80F00FFE79DF80F0004B07F
:1024200080BD000040F23000C2F20000006870473A
:1024300080B5FFF7F7FF43F60801C4F2020109680F
:10244000C1F382224AF6FC51C0F60001895CC84003
:1024500080BD000080B5FFF7E5FF43F60801C4F238
:102460000201096889B24A0B4AF6FC51C0F6000124
:10247000895CC84080BD000080B586B00020059012
:1024800004900390029043F60800C4F20200006832
:1024900000F00C000146019140B1FFE701980428CB
:1024A0000AD0FFE7019808280CD04FE042F2004024
:1024B000C0F2F40002904FE043F20060C0F26E10F0
:1024C000029049E043F60400C4F20200016801F002
:1024D0003F01059100684002002813D5FFE743F64D
:1024E0000400C4F202000068C0F3881043F20061E7
:1024F000C0F26E11A0FB0101059A0023FDF768FEF2
:10250000049012E043F60400C4F202000068C0F335
:10251000881042F20041C0F2F401A0FB0101059ACB
:102520000023FDF755FE0490FFE743F60400C4F2D4
:102530000200006800F44031022000EBD13003902B
:1025400004980399B0FBF1F0029005E042F20040DC
:10255000C0F2F4000290FFE7029806B080BD0000D0
:1025600080B586B00490049820B9FFE701208DF86B
:10257000170050E304980078C007002800F0A580F9
:10258000FFE743F60800C4F20200006800F00C0008
:10259000042813D0FFE743F60800C4F202000068E5
:1025A00000F00C0008281ED1FFE743F60400C4F237
:1025B000020000684002002815D5FFE743F600003E
:1025C000C4F20200006800F400310020B0EB514F6B
:1025D00008D0FFE70498406820B9FFE701208DF894
:1025E000170018E370E0FFE704984068B0F5803FFB
:1025F00009D1FFE743F60001C4F20201086840F484
:102600008030086020E004984068B0F5A02F0DD11C
:10261000FFE743F60001C4F20201086840F480209D
:102620000860086840F4803008600CE043F6000160
:10263000C4F20201086820F480300860086820F4C1
:1026400080200860FFE7FFE7FFE704984068E8B1F3
:10265000FFE7FFF721F80390FFE743F60000C4F21D
:102660000200006800F400310020B0EB514F0CD1A3
:10267000FFE7FFF711F80399401A652804D3FFE735
:1026800003208DF81700C6E2E7E71CE0FFF704F827
:102690000390FFE743F60000C4F20200006800F474
:1026A00000310020B0EB514F0CD0FFE7FEF7F4FFF4
:1026B0000399401A652804D3FFE703208DF817001B
:1026C000A9E2E7E7FFE7FFE7FFE704980078800764
:1026D000002840F19680FFE743F60800C4F20200AC
:1026E000006810F00C0F13D0FFE743F60800C4F2A7
:1026F0000200006800F00C0008282CD1FFE743F628
:102700000400C4F2020000684002002823D4FFE75E
:1027100043F60000C4F20200006800F0020100204D
:10272000B0EB510F09D0FFE70498C068012804D02E
:10273000FFE701208DF817006DE243F60001C4F2B7
:102740000201086820F0F800049A126940EAC20009
:102750000860FFE754E00498C06870B3FFE7002109
:10276000C4F2472101200860FEF796FF0390FFE7BF
:1027700043F60000C4F20200006800F002010020ED
:10278000B0EB510F0CD1FFE7FEF786FF0399401A1B
:10279000032804D3FFE703208DF817003BE2E7E7A7
:1027A00043F60001C4F20201086820F0F800049A20
:1027B000126940EAC200086021E00021C4F247210A
:1027C00000200860FEF768FF0390FFE743F6000073
:1027D000C4F20200006800F002010020B0EB510FCB
:1027E0000CD0FFE7FEF758FF0399401A032804D3E3
:1027F000FFE703208DF817000DE2E7E7FFE7FFE7AB
:10280000FFE704980078000700284BD5FFE70498FD
:10281000406918B3FFE740F68061C4F24721012008
:102820000860FEF739FF0390FFE743F67400C4F237
:102830000200006800F002010020B0EB510F0CD143
:10284000FFE7FEF729FF0399401A032804D3FFE7A7
:1028500003208DF81700DEE1E7E722E040F6806113
:10286000C4F2472100200860FEF716FF0390FFE73F
:1028700043F67400C4F20200006800F00201002078
:10288000B0EB510F0CD0FFE7FEF706FF0399401A9B
:10289000032804D3FFE703208DF81700BBE1E7E727
:1028A000FFE7FFE7049800784007002840F1CE805A
:1028B000FFE700208DF8070043F64000C4F2020055
:1028C0000068C000002815D4FFE7FFE70020009053
:1028D00043F64000C4F20200016841F080510160FB
:1028E000006800F0805000900098FFE701208DF80C
:1028F0000700FFE747F20000C4F200000068C005CF
:10290000002822D4FFE747F20001C4F20001086862
:1029100040F480700860FEF7BFFE0390FFE747F2C7
:102920000000C4F200000068C00500280CD4FFE7D6
:10293000FEF7B2FE0399401A032804D3FFE70320F1
:102940008DF8170067E1EAE7FFE7FFE70498806882
:10295000012809D1FFE743F67001C4F202010868BB
:1029600040F0010008601FE00498806805280DD140
:10297000FFE743F67001C4F20201086840F004006A
:102980000860086840F0010008600CE043F6700140
:10299000C4F20201086820F001000860086820F015
:1029A00004000860FFE7FFE7FFE704988068F8B1DC
:1029B000FFE7FEF771FE0390FFE743F67000C4F2F5
:1029C0000200006800F002010020B0EB510F0ED1B0
:1029D000FFE7FEF761FE0399401A41F28931884210
:1029E00004D3FFE703208DF8170014E1E5E71EE0AC
:1029F000FEF752FE0390FFE743F67000C4F20200B8
:102A0000006800F002010020B0EB510F0ED0FFE78C
:102A1000FEF742FE0399401A41F28931884204D3FD
:102A2000FFE703208DF81700F5E0E5E7FFE79DF8E5
:102A30000700012809D1FFE743F64001C4F2020173
:102A4000086820F080500860FFE7FFE7049880697D
:102A5000002800F0DC80FFE743F60800C4F2020023
:102A6000006800F00C00082800F08580FFE704985B
:102A7000806902285CD1FFE76021C4F24721002071
:102A80000860FEF709FE0390FFE743F60000C4F27A
:102A90000200006800F000710020B0EB516F0CD014
:102AA000FFE7FEF7F9FD0399401A032804D3FFE777
:102AB00003208DF81700AEE0E7E70499C869D1F864
:102AC00020C04B6A8A6A40EA0C0040EA8310D203B5
:102AD0004FF6FF739A43A2F580321043C96A40EA69
:102AE000016043F60401C4F2020108606021C4F2EF
:102AF000472101200860FEF7CFFD0390FFE743F672
:102B00000000C4F20200006800F000710020B0EB89
:102B1000516F0CD1FFE7FEF7BFFD0399401A032860
:102B200004D3FFE703208DF8170074E0E7E721E006
:102B30006021C4F2472100200860FEF7ADFD03903C
:102B4000FFE743F60000C4F20200006800F00071E5
:102B50000020B0EB516F0CD0FFE7FEF79DFD03990D
:102B6000401A032804D3FFE703208DF8170052E032
:102B7000E7E7FFE74AE004988069012804D1FFE70E
:102B800001208DF8170046E043F60400C4F202006D
:102B90000068029004988069012831D0FFE702980C
:102BA00000F480000499C969884229D1FFE702989E
:102BB00000F03F000499096A884221D1FFE702989A
:102BC00047F6C07108400499496AB0EB811F17D1DC
:102BD000FFE7029800F440300499896AC9034FF670
:102BE000FF729143A1F58031884209D1FFE7029835
:102BF00000F070600499C96AB0EB016F04D0FFE780
:102C000001208DF8170006E0FFE7FFE7FFE700204F
:102C10008DF81700FFE79DF8170006B080BD000093
:102C200080B584B00290029820B9FFE701208DF8AA
:102C30000F0071E00298406A60B9FFE702984068AF
:102C4000B0F5827F01D1FFE703E002990020C8615F
:102C5000FFE705E002990020086102994861FFE75B
:102C6000029900208862029890F8510040B9FFE76D
:102C70000299002081F85000029800F051F8FFE717
:102C80000299022081F8510002980168086820F03A
:102C900040000860029A019211685068D2F808C09A
:102CA000D36800F482700CF4044C604403F40063B5
:102CB0001844136903F002031844536903F0010335
:102CC0001844936903F400731844D36903F038037C
:102CD0001844136A03F080031843926A02F4005206
:102CE00010430860029A508B00F004001168526A89
:102CF00002F010021044486002980168C86920F48C
:102D00000060C861029900204865029A012182F89A
:102D100051108DF80F00FFE79DF80F0004B080BD43
:102D200080B588B00790002006900590049003902D
:102D300002900798006843F20001C4F20101884242
:102D400033D1FFE7FFE70020019043F64400C4F2CF
:102D50000200016841F480510160006800F4805075
:102D600001900198FFE7FFE70020009043F6300054
:102D7000C4F20200016841F001010160006800F046
:102D8000010000900098FFE7E020029002200390ED
:102D90000020049003200590052006900020C4F236
:102DA000020002A9FEF782FAFFE708B080BD00002A
:102DB00080B588B006900591ADF8122003930020ED
:102DC0008DF8070006984068B0F5827F16D1FFE7BE
:102DD0000698806890B9FFE70699042081F85100B1
:102DE0000698059ABDF812300399EC46CCF800100D
:102DF000114600F037FA8DF81F00EDE0FFE7069866
:102E000090F85000012804D1FFE702208DF81F0040
:102E1000E2E00699012081F85000FFE7FFE7FEF7A6
:102E20003BFC0290069890F85100012804D0FFE77F
:102E300002208DF80700C0E0059820B1FFE7BDF83B
:102E4000120020B9FFE701208DF80700B5E00699D0
:102E5000042081F851000699002048650599069ADA
:102E60009163BDF81210069A9187BDF81210069A68
:102E7000D18706990863069988860699C8860699B7
:102E800008640699486406988068B0F5004F0DD133
:102E9000FFE706980168086820F04000086006987F
:102EA0000168086820F480400860FFE70698006821
:102EB000006800F04000402807D0FFE7069801684E
:102EC000086840F040000860FFE70698C06880BBD3
:102ED000FFE7FFE70698C08F50B3FFE7069800684A
:102EE0008068C00778B1FFE706980068007B069904
:102EF000896B08700699886B013088630699C88FC2
:102F00000138C88713E0FEF7C7FB0299401A0399FE
:102F1000884204D3FFE70398013018B9FFE703980C
:102F200020B9FFE703208DF8070046E0FFE7D1E76F
:102F30002FE0FFE70698C08F50B3FFE706980068C0
:102F40008068C00778B1FFE706980068C0680699F6
:102F5000896B08800699886B023088630699C88F50
:102F60000138C88713E0FEF797FB0299401A0399CE
:102F7000884204D3FFE70398013018B9FFE70398AC
:102F800020B9FFE703208DF8070016E0FFE7D1E73F
:102F9000FFE706980399029A02F09AF820B1FFE73A
:102FA000069920204865FFE70698406D20B1FFE7AD
:102FB00001208DF80700FFE7FFE70699012081F85F
:102FC0005100FFE70699002081F85000FFE79DF8C7
:102FD00007008DF81F00FFE79DF81F0008B080BDB7
:102FE00080B588B006900591ADF8122003930020BB
:102FF0008DF80700FFE7069890F85000012804D1EB
:10300000FFE702208DF81F0028E10699012081F8D2
:103010005000FFE7FFE7FEF73FFB0290BDF812000C
:10302000ADF80400069890F85100012804D0FFE79D
:1030300002208DF8070002E1059820B1FFE7BDF8F6
:10304000120020B9FFE701208DF80700F7E006998C
:10305000032081F851000699002048650599069AD9
:103060001163BDF81210069A9186BDF81210069AE7
:10307000D18606998863069988870699C887069934
:1030800048640699086406988068B0F5004F0DD131
:10309000FFE706980168086820F04000086006987D
:1030A0000168086840F480400860FFE706980068FF
:1030B000006800F04000402807D0FFE7069801684C
:1030C000086840F040000860FFE70698C068B0F567
:1030D000006F47D1FFE70698406828B1FFE7BDF8C9
:1030E000040001280ED1FFE706980168006B0088F4
:1030F000C8600699086B023008630699C88E0138CB
:10310000C886FFE7FFE70698C08E50B3FFE7069832
:1031100000688068800700280ED5FFE706980168E0
:10312000006B0088C8600699086B02300863069936
:10313000C88E0138C88613E0FEF7AEFA0299401A2D
:103140000399884204D3FFE70398013018B9FFE7D9
:10315000039820B9FFE703208DF807006FE0FFE731
:10316000D1E746E00698406828B1FFE7BDF80400C3
:1031700001280ED1FFE706980168006B00780873FC
:103180000699086B013008630699C88E0138C88615
:10319000FFE7FFE70698C08E50B3FFE70698006888
:1031A0008068800700280ED5FFE706980168006B4D
:1031B000007808730699086B013008630699C88E79
:1031C0000138C88613E0FEF767FA0299401A03999E
:1031D000884204D3FFE70398013018B9FFE703984A
:1031E00020B9FFE703208DF8070028E0FFE7D1E7CB
:1031F000FFE706980399029A01F0DCFF20B1FFE790
:10320000069920204865FFE70698806870B9FFE7B7
:10321000FFE70020009006980068C06800900698BC
:103220000068806800900098FFE7FFE70698406D0F
:1032300020B1FFE701208DF80700FFE7FFE70699BF
:10324000012081F85100FFE70699002081F8500025
:10325000FFE79DF807008DF81F00FFE79DF81F00AE
:1032600008B080BD80B58EB0DDF840C00C900B91E9
:103270000A92ADF826300120059000208DF8130049
:10328000FFE70C9890F85000012804D1FFE70220D6
:103290008DF8370095E10C99012081F85000FFE787
:1032A000FFE7FEF7F9F906900C9890F851008DF8B9
:1032B0001F000C9840680890BDF82600ADF8240067
:1032C0009DF81F00012812D0FFE70898B0F5827F13
:1032D00009D1FFE70C98806828B9FFE79DF81F0027
:1032E000042804D0FFE702208DF813005AE10B9860
:1032F00038B1FFE70A9820B1FFE7BDF8260020B9F2
:10330000FFE701208DF813004CE10C9890F8510074
:10331000042805D0FFE70C99052081F85100FFE74C
:103320000C99002048650A990C9A9163BDF8261003
:103330000C9AD187BDF826100C9A91870B990C9A9C
:103340001163BDF826100C9AD186BDF826100C9A90
:1033500091860C9908640C9948640C980068006880
:1033600000F04000402807D0FFE70C98016808688B
:1033700040F040000860FFE70C98C068B0F5006FAF
:1033800076D1FFE70C98406828B1FFE7BDF824002C
:1033900001280ED1FFE70C980168006B0088C86017
:1033A0000C99086B023008630C99C88E0138C886E6
:1033B000FFE7FFE70C98C18E0120029039B9FFE7C3
:1033C0000C98C08F002818BF01200290FFE70298D8
:1033D000C00700284BD0FFE70C9800688068800782
:1033E000002818D5FFE70C98C08EA0B1FFE705981C
:1033F000012810D1FFE70C980168006B0088C860B5
:103400000C99086B023008630C99C88E0138C88685
:1034100000200590FFE70C9800688068C007A8B1FD
:10342000FFE70C98C08F88B1FFE70C980068C06870
:103430000C99896B08800C99886B023088630C9911
:10344000C88F0138C88701200590FFE7FEF724F9EF
:103450000699401A1099884208D3FFE71098013066
:1034600020B1FFE703208DF813009BE0A2E778E08E
:103470000C98406828B1FFE7BDF8240001280ED160
:10348000FFE70C980168006B007808730C99086BD3
:10349000013008630C99C88E0138C886FFE7FFE742
:1034A0000C98C18E0120019039B9FFE70C98C08FAC
:1034B000002818BF01200190FFE70198C0070028ED
:1034C0004ED0FFE70C98006880688007002818D568
:1034D000FFE70C98C08EA0B1FFE70598012810D136
:1034E000FFE70C980168006B007808730C99086B73
:1034F000013008630C99C88E0138C88600200590F9
:10350000FFE70C9800688068C007A8B1FFE70C9837
:10351000C08F88B1FFE70C980068C0680C99896B70
:1035200008700C99886B013088630C99C88F01383A
:10353000C88701200590FFE7FEF7AEF80699401A0C
:103540001099884204D3FFE71098013018B9FFE7BB
:10355000109820B9FFE703208DF8130022E09FE7C1
:10356000FFE70C981099069A01F024FE38B1FFE7A6
:1035700001208DF813000C992020486512E00C986A
:10358000806870B9FFE7FFE7002003900C9800689F
:10359000C06803900C980068806803900398FFE768
:1035A000FFE7FFE70C99012081F85100FFE70C9934
:1035B000002081F85000FFE79DF813008DF83700D8
:1035C000FFE79DF837000EB080BD000080B582B0E7
:1035D0000190019801F0D8FE02B080BD81B000904A
:1035E00001B0704781B0009001B0704780B582B0E3
:1035F0000090009820B9FFE701208DF807003FE018
:10360000009890F83D0040B9FFE70099002081F84C
:103610003C00009800F038F8FFE70099022081F89C
:103620003D00009951F8040B01F04AFF0099012078
:1036300081F84600FFE70099012081F83E000099DB
:1036400081F83F00009981F84000009981F841001D
:10365000FFE7FFE70099012081F84200009981F817
:103660004300009981F84400009981F84500FFE784
:103670000099012081F83D0000208DF80700FFE748
:103680009DF8070002B080BD80B584B00390039818
:10369000006844F60001C4F2010188421BD1FFE733
:1036A000FFE70020029043F64400C4F202000168E4
:1036B00041F480210160006800F4802002900298AB
:1036C000FFE71A20019005210022FEF757FD01981F
:1036D000FEF74AFDFFE704B080BD000083B0019013
:1036E000019890F83D00012804D0FFE701208DF8F3
:1036F0000B0058E00199022081F83D000198016813
:10370000C86840F00100C860019800680021C4F258
:10371000010188422AD0FFE701980068B0F1804F8C
:1037200024D0FFE70198006840F20041C4F2000194
:1037300088421BD0FFE70198006840F60001C4F200
:103740000001884212D0FFE70198006840F600416E
:10375000C4F20001884209D0FFE70198006844F2F2
:103760000001C4F20101884212D1FFE7019800680C
:10377000806800F0070000900098062807D0FFE757
:1037800001980168086840F001000860FFE706E062
:1037900001980168086840F001000860FFE7002018
:1037A0008DF80B00FFE79DF80B0003B07047000099
:1037B00081B0009001B0704780B582B0019001984F
:1037C0000068006900F002010020B0EB510F28D022
:1037D000FFE701980068C06800F002010020B0EB2C
:1037E000510F1DD0FFE7019801686FF002000861DA
:1037F000019901200877019800688069800720B14D
:10380000FFE70198FFF7D4FF06E0019800F012F9F6
:10381000019800F013F9FFE7019900200877FFE70E
:10382000FFE701980068006900F004010020B0EB98
:10383000910F29D0FFE701980068C06800F00401EB
:103840000020B0EB910F1ED0FFE7019801686FF0E8
:1038500004000861019902200877019800688069D6
:1038600010F4407F04D0FFE70198FFF7A1FF06E0C6
:10387000019800F0DFF8019800F0E0F8FFE7019907
:1038800000200877FFE7FFE701980068006900F073
:1038900008010020B0EBD10F28D0FFE701980068A5
:1038A000C06800F008010020B0EBD10F1DD0FFE789
:1038B000019801686FF008000861019904200877F9
:1038C00001980068C069800720B1FFE70198FFF701
:1038D0006FFF06E0019800F0ADF8019800F0AEF837
:1038E000FFE7019900200877FFE7FFE701980068EC
:1038F000006900F010010020B0EB111F29D0FFE794
:1039000001980068C06800F010010020B0EB111FA2
:103910001ED0FFE7019801686FF01000086101995F
:103920000820087701980068C06910F4407F04D02F
:10393000FFE70198FFF73CFF06E0019800F07AF8F6
:10394000019800F07BF8FFE7019900200877FFE776
:10395000FFE7019800680069C00780B1FFE70198A0
:103960000068C068C00748B1FFE7019801686FF0C0
:1039700001000861019800F065F8FFE7FFE7019892
:1039800000680069C1B20020B0EBD11F13D0FFE77F
:1039900001980068C068C1B20020B0EBD11F09D007
:1039A000FFE7019801686FF0800008610198FFF758
:1039B00015FEFFE7FFE701980068006900F040018D
:1039C0000020B0EB911F14D0FFE701980068C06899
:1039D00000F040010020B0EB911F09D0FFE70198F3
:1039E00001686FF040000861019800F065F8FFE79A
:1039F000FFE701980068006900F020010020B0EBAB
:103A0000511F14D0FFE701980068C06800F0200142
:103A10000020B0EB511F09D0FFE7019801686FF05B
:103A2000200008610198FFF7DDFDFFE7FFE702B026
:103A300080BD000081B0009001B0704781B000905F
:103A400001B0704781B000900098006844F6000112
:103A5000C4F2010188422CD1FFE740F23811C2F2D2
:103A60000001087840F004000870087840F0100069
:103A7000087040F26E00C2F2000000780B280FDBE5
:103A8000FFE740F26E01C2F200010020087040F230
:103A90003811C2F20001087840F00800087007E011
:103AA00040F26E01C2F20001087801300870FFE7B1
:103AB000FFE701B07047000081B0009001B070478F
:103AC00080B582B00090009820B9FFE701208DF802
:103AD00007003EE00098806908B1FFE700E0FFE7DB
:103AE000009890F83D0040B9FFE70099002081F868
:103AF0003C00009800F032F8FFE70099242081F89C
:103B00003D0000980168C86820F40050C860009823
:103B100001F074FD00980168086920F49040086184
:103B200000980168486920F02A00486100980168FF
:103B3000C86840F40050C860009900200864009AEA
:103B4000202182F83D10009A82F83E108DF807007F
:103B5000FFE79DF8070002B080BD000080B58AB085
:103B6000099000200890079006900590049009980D
:103B7000006841F20001C4F20101884234D1FFE73C
:103B8000FFE70020039043F64400C4F202000168FE
:103B900041F010010160006800F0100003900398EC
:103BA000FFE7FFE70020029043F63000C4F2020076
:103BB000016841F001010160006800F0010002901D
:103BC0000298FFE74FF4C0600490022005900020A7
:103BD000069003200790072008900020C4F20200FE
:103BE00004A9FDF763FB3CE00998006844F200413A
:103BF000C4F20001884233D1FFE7FFE700200190C3
:103C000043F64000C4F20200016841F40031016053
:103C1000006800F4003001900198FFE7FFE7002002
:103C2000009043F63000C4F20200016841F0010147
:103C30000160006800F0010000900098FFE70C2090
:103C40000490022005900020069003200790072092
:103C500008900020C4F2020004A9FDF727FBFFE74B
:103C6000FFE70AB080BD000080B58AB008900791D8
:103C7000ADF81A20059300200290089890F83D00B6
:103C8000202840F09080FFE7079820B1FFE7BDF8BB
:103C90001A0020B9FFE701208DF8270087E0FFE731
:103CA000089890F83C00012804D1FFE702208DF825
:103CB00027007CE00899012081F83C00FFE7FFE73E
:103CC0000899002008640899212081F83D00FDF73B
:103CD000E3FC0290BDF81A0008998884BDF81A0028
:103CE0000899C88408988068B0F5805F09D1FFE71B
:103CF0000898006928B9FFE700200490079803900E
:103D000004E00798049000200390FFE7FFE708997C
:103D1000002081F83C00FFE7FFE70898C08C58B30B
:103D2000FFE70898029B05996A46116080210022EE
:103D300001F002FD20B1FFE703208DF8270036E0F7
:103D4000049858B9FFE7039800886FF35F2008993B
:103D50000968486003980230039008E004980078EE
:103D6000089909684860049801300490FFE70899B1
:103D7000C88C0138C884D0E70898029B05996A4628
:103D800011604021002201F0D7FC20B1FFE70320A1
:103D90008DF827000BE00899202081F83D000020D5
:103DA0008DF8270003E002208DF82700FFE79DF83B
:103DB00027000AB080BD000080B586B005908DF860
:103DC0001310059800680390039802909DF8130063
:103DD00001900298019900EB4110D0F808054007C6
:103DE000002816D5FFE70298019900EB4111042045
:103DF000C1F80805059A01982C2100FB0121062035
:103E000081F86100059800689DF8041005F02AFC0F
:103E100099E00298019900EB4110D0F80805C0051F
:103E2000002817D5FFE70298019900EB41114FF4E4
:103E30008070C1F80805059A01982C2100FB01212A
:103E4000072081F86100059800689DF8041005F0CE
:103E500009FC77E00298019900EB4110D0F80805C1
:103E60008006002808D5FFE70298019900EB411170
:103E70002020C1F8080564E00298019900EB411088
:103E8000D0F808050007002816D5FFE70298019929
:103E900000EB41110820C1F80805059A01982C2172
:103EA00000FB0121052081F86100059800689DF85C
:103EB000041005F0D7FB43E00298019900EB411094
:103EC000D0F808054005002817D5FFE702980199AA
:103ED00000EB41114FF48060C1F80805059A019884
:103EE0002C2100FB0121082081F861000598006861
:103EF0009DF8041005F0B6FB21E00298019900EB53
:103F00004110D0F808050006002816D5FFE70298F2
:103F1000019900EB41118020C1F80805059A01982C
:103F20002C2100FB0121062081F861000598006822
:103F30009DF8041005F096FB00E0FFE7FFE7FFE7C0
:103F4000FFE7FFE7FFE70298019900EB4110D0F887
:103F50000805800500280FD5FFE7059800689DF843
:103F6000041005F07FFB0298019900EB41114FF41A
:103F70000070C1F80805F0E10298019900EB4110CA
:103F8000D0F80805C007002800F0AB80FFE70598CF
:103F90000069A0B1FFE70598019B2C2203FB0200FA
:103FA000806C029901EB4311D1F810156FF3DF41DA
:103FB000401A059B019901FB02310865FFE7059A4C
:103FC00001982C2100FB0122012082F86100059B51
:103FD000019A02FB01330022DA65029A019B02EB8F
:103FE0004312C2F80805059A019800FB012090F8D9
:103FF0003F0050B1FFE7059A01982C2100FB0120FA
:1040000090F83F0002280ED1FFE7059800689DF860
:10401000041005F027FB0298019900EB41111020D4
:10402000C1F8080531E0059A01982C2100FB012018
:1040300090F83F0003280AD0FFE7059A01982C2149
:1040400000FB012090F83F0001281CD1FFE70298F7
:10405000019900EB4111D1F8000540F00050C1F882
:104060000005059901982C2200FB0211012081F81E
:1040700060000598019901FB020292F86020C9B224
:10408000FDF72AFC00E0FFE7FFE70598006901283B
:104090001AD1FFE7059A01982C2100FB0121886CB9
:1040A000B1F84010B0FBF1F0C00760B1FFE7059A2E
:1040B00001982C2100FB012191F8540080F00100AF
:1040C00081F85400FFE70BE0059A01982C2100FBD2
:1040D000012191F8540080F0010081F85400FFE7BD
:1040E0003AE10298019900EB4110D0F808058007E9
:1040F000002840F1D480FFE7059A01982C2100FBAD
:10410000012090F86100012809D1FFE7059A019884
:104110002C2100FB0121012081F86000ADE0059A0F
:1041200001982C2100FB012090F86100052809D19D
:10413000FFE7059A01982C2100FB0121052081F859
:10414000600099E0059A01982C2100FB012090F86D
:10415000610006280AD0FFE7059A01982C2100FB90
:10416000012090F8610008283FD1FFE7059A0198E7
:104170002C2100FB0122D06D0130D065059A0198F9
:1041800000FB0120C06D03280FD3FFE7059A0198BB
:104190002C2100FB01220020D065059A019800FB2C
:1041A0000121042081F860001EE0059A01982C216D
:1041B00000FB0121022081F860000298019900EBC8
:1041C0004110D0F800050090009820F08040009049
:1041D000009840F00040009000980299019A01EB8D
:1041E0004211C1F80005FFE745E0059A01982C212E
:1041F00000FB012090F8610003281FD1FFE7059A1A
:1042000001982C2100FB0121022081F86000029816
:10421000019900EB4110D0F800050090009820F0C3
:1042200080400090009840F0004000900098029973
:10423000019A01EB4211C1F800051BE0059A0198B3
:104240002C2100FB012090F86100072810D1FFE726
:10425000059A01982C2100FB0122D06D0130D06518
:10426000059A019800FB0121042081F8600000E01C
:10427000FFE7FFE7FFE7FFE7FFE70298019900EBA1
:1042800041110220C1F80805059801992C2201FB73
:10429000020292F86020C9B2FDF71EFB5BE00298B3
:1042A000019900EB4110D0F80805C006002850D550
:1042B000FFE7059A01982C2100FB012090F83F00B0
:1042C00003280ED1FFE7059A01982C2100FB01215C
:1042D0000020C865059800689DF8041005F0C2F933
:1042E0002FE0059A01982C2100FB012090F83F0057
:1042F00050B1FFE7059A01982C2100FB012090F8AE
:104300003F0002281BD1FFE7059A01982C2100FBF2
:1043100001210020C8650598006978B9FFE7059A72
:1043200001982C2100FB0121032081F861000598F0
:1043300000689DF8041005F095F9FFE700E0FFE73D
:10434000FFE70298019900EB41111020C1F8080520
:1043500000E0FFE7FFE7FFE7FFE706B080BD0000F2
:1043600080B588B007908DF81B10079800680590FD
:10437000059804909DF81B0003900498039900EBA6
:104380004110D0F808054007002816D5FFE704982B
:10439000039900EB41110420C1F80805079A03981E
:1043A0002C2100FB0121062081F86100079800689C
:1043B0009DF80C1005F056F9AAE20498039900EB59
:1043C0004110D0F808058006002828D5FFE704989A
:1043D000039900EB41112020C1F80805079A0398C2
:1043E0002C2100FB012090F83D00012816D1FFE7A9
:1043F000079A03982C2100FB0122002082F83D003F
:10440000079A039800FB0121022081F860000798B9
:1044100000689DF80C1005F025F9FFE777E2049895
:10442000039900EB4110D0F80805800500280FD54E
:10443000FFE70498039900EB41114FF40070C1F8B5
:104440000805079800689DF80C1005F00BF95DE26F
:104450000498039900EB4110D0F80805C007B0B3E9
:10446000FFE7079A03982C2100FB01210020C86573
:104470000498039900EB4110D0F808054006002885
:1044800010D5FFE7079A03982C2100FB012101209A
:1044900081F83D000498039900EB41114020C1F8D8
:1044A0000805FFE70498039900EB41110120C1F8CA
:1044B0000805079B03992C2201FB023181F861005A
:1044C000079800689DF80C1005F0CCF81DE20498E0
:1044D000039900EB4110D0F808054006002823D5C9
:1044E000FFE7079A03982C2100FB0122042082F8A1
:1044F0006100079A039800FB0122012082F83D0029
:10450000079A039800FB01210020C86507980068FE
:104510009DF80C1005F0A6F80498039900EB4111E2
:104520004020C1F80805EFE10498039900EB411021
:10453000D0F808050007002816D5FFE7049803996E
:1045400000EB41110820C1F80805079A03982C21B7
:1045500000FB0121052081F86100079800689DF8A3
:104560000C1005F07FF8CEE10498039900EB4110A0
:10457000D0F80805C006002837D5FFE7079A03984A
:104580002C2100FB01220020D065079A039800FB34
:104590000122032082F86100079A039800FB0120A2
:1045A00090F83D0098B9FFE7079A03982C2100FB8B
:1045B000012090F83C0048B9FFE7079A03982C21A6
:1045C00000FB0121012081F83D00FFE7FFE707988C
:1045D00000689DF80C1005F045F80498039900EB6D
:1045E00041111020C1F808058CE10498039900EBF3
:1045F0004110D0F80805000600284DD5FFE70798C0
:10460000006978B9FFE7079A03982C2100FB012184
:10461000062081F86100079800689DF80C1005F0ED
:1046200021F831E0079A03982C2100FB0122D06D7C
:104630000130D065079A039800FB0120C06D032864
:1046400018D3FFE7079903982C2200FB02110020E2
:10465000C8650799039800FB0211042081F86000E7
:104660000798039901FB020292F86020C9B2FDF796
:1046700033F908E0079A03982C2100FB012102205E
:1046800081F86000FFE7FFE70498039900EB411110
:104690008020C1F8080534E10498039900EB41102B
:1046A000D0F808054005002817D5FFE7079A0398BA
:1046B0002C2100FB0121082081F861000798006887
:1046C0009DF80C1004F0CEFF0498039900EB411103
:1046D0004FF48060C1F8080512E10498039900EBDB
:1046E0004110D0F808058007002840F10781FFE756
:1046F000079A03982C2100FB012090F86100012803
:1047000059D1FFE7079A03982C2100FB01220120D1
:1047100082F86000079A039800FB012090F83F00A0
:1047200002280AD0FFE7079A03982C2100FB0120FA
:1047300090F83F0003283DD1FFE70798006960B972
:10474000FFE7079A03982C2100FB012191F85500FF
:1047500080F0010081F85500FFE707980069012803
:1047600027D1FFE7079A03982C2100FB0120C06C9A
:10477000F8B1FFE7079A03982C2100FB0121C86CD0
:10478000B1F8401008440138B0FBF1F001909DF8F9
:104790000400C00760B1FFE7079A03982C2100FBD3
:1047A000012191F8550080F0010081F85500FFE7E4
:1047B000FFE7FFE790E0079A03982C2100FB012018
:1047C00090F86100032809D1FFE7079A03982C218C
:1047D00000FB0121022081F860007CE0079A039829
:1047E0002C2100FB012090F86100042809D1FFE78B
:1047F000079A03982C2100FB0121022081F8600018
:1048000068E0079A03982C2100FB012090F86100D2
:10481000052809D1FFE7079A03982C2100FB012105
:10482000052081F8600054E0079A03982C2100FBD2
:10483000012090F8610006280AD0FFE7079A039844
:104840002C2100FB012090F8610008283FD1FFE7F0
:10485000079A03982C2100FB0122D06D0130D0650E
:10486000079A039800FB0120C06D03280FD3FFE7D0
:10487000079A03982C2100FB01220020D065079A9B
:10488000039800FB0121042081F860001EE0079AD4
:1048900003982C2100FB0121022081F8600004987C
:1048A000039900EB4110D0F800050290029820F027
:1048B00080400290029840F00040029002980499D3
:1048C000039A01EB4211C1F80005FFE700E0FFE7A2
:1048D000FFE7FFE7FFE7FFE70498039900EB4111CB
:1048E0000220C1F80805079803992C2201FB020257
:1048F00092F86020C9B2FCF7EFFF00E0FFE7FFE7A6
:10490000FFE7FFE7FFE7FFE7FFE7FFE7FFE7FFE777
:1049100008B080BD80B586B0059005980068049009
:10492000049803900398D0F8400402900398D0F8BC
:1049300040040190019820F02E0001900298800719
:1049400000280DD5FFE70298C00720B1FFE70598C2
:10495000FCF7A8FEFFE7019840F002000190FFE796
:1049600002980007002837D5FFE7019840F00800BB
:10497000019002984007002829D5FFE70598806933
:10498000022814D1FFE7029800F4C020B0F5802F70
:1049900006D1FFE705980068022105F061FA05E0FD
:1049A00005980068012105F05BFAFFE70BE0059828
:1049B000C068012806D1FFE703994EF66020C1F8D0
:1049C0000404FFE7FFE70598FDF7D6FA03E0059832
:1049D000FDF7C8FAFFE7FFE702988006002805D533
:1049E000FFE7019840F020000190FFE7019803994C
:1049F000C1F8400406B080BD80B58CB00B900B9818
:104A000000680A900A9809900B980068006A06905E
:104A1000069800F00F0003900698C0F343400890FA
:104A20000698C0F30A1007900898023801460291D0
:104A3000052800F282800299DFE801F0037E7F7D85
:104A40007F7E0798002875D0FFE70B9A03982C21EA
:104A500000FB0120406C00286CD0FFE70B9A039804
:104A60002C2100FB0120C16C006D079A1044884284
:104A700056D8FFE70B9B186803992C22019201FB83
:104A80000231496CBDF81C2005F02AFA0199079BF8
:104A90000B9A039800FB0122506C18445064079B4A
:104AA0000B9A039800FB0122106D184410650998B9
:104AB000039A00EB4210D0F81005C0F3C9400590EE
:104AC0000B9A039800FB0120B0F840000799884238
:104AD00025D1FFE7059810B3FFE70998039900EB8C
:104AE0004110D0F800050490049820F08040049014
:104AF000049840F00040049004980999039A01EB4F
:104B00004211C1F800050B9A03982C2100FB0121EA
:104B100091F8540080F0010081F85400FFE708E0AC
:104B20000B9A03982C2100FB0121042081F86000DE
:104B3000FFE7FFE702E001E0FFE7FFE70CB080BD21
:104B40008BB009908DF823100020079006900998EB
:104B5000006804900998007A8DF80F000998407A4F
:104B600000B3FFE70998407A9DF82310884203DCE0
:104B7000FFE700200A9085E09DF823000999496825
:104B8000484305909DF80F10059808440590059935
:104B9000049800EBD1000490059800F007008DF810
:104BA0000F00FFE700200690FFE7069801900998A4
:104BB0000079400738B1FFE709984168012000EB10
:104BC000D100009004E009984068C0080090FFE719
:104BD0000198009988420BD2FFE704980078069963
:104BE000C90088400790FFE7069801300690DCE78F
:104BF00007989DF80F10C84009994A680121914013
:104C000001390840079007980999C968884206D376
:104C1000FFE7079809990969884203D9FFE700204F
:104C20000A902FE00998807AF0B1FFE70798099978
:104C300049680139C840C007B0B1FFE70998416829
:104C40000120884040420799084302900998C069B2
:104C5000012803D1FFE702980A9013E0029809990E
:104C6000C96948430A900DE00998C069012803D139
:104C7000FFE707980A9005E007980999C969484332
:104C80000A90FFE70A980BB070470000FFE7FEE7C5
:104C900080B594B0002013901290119010900F9056
:104CA000FFE700200E9043F63000C4F202000168D6
:104CB00041F004010160006800F004000E900E98BD
:104CC000FFE7FFE700200D9043F63000C4F202003A
:104CD000016841F080010160006800F080000D90E3
:104CE0000D98FFE7FFE700200C9043F63000C4F278
:104CF0000200016841F001010160006800F001005C
:104D00000C900C98FFE7FFE700200B9043F6300073
:104D1000C4F20200016841F002010160006800F085
:104D200002000B900B98FFE70020C4F202000490F1
:104D30001021019100220992FCF796FC099A40F299
:104D40000040C4F20200059001210291FCF78CFCA6
:104D5000029A059808210891FCF786FC019B029AAB
:104D6000049809990F931092119112910FA906912D
:104D7000FCF79CFA029B05980699099A0F931093E9
:104D800011921292FCF792FA029A05980699022360
:104D90000F934FF40413039310931192FCF786FAC8
:104DA000039B04980699099A4FF4004CCDF83CC037
:104DB00010931192FCF77AFA05980699089B099AC4
:104DC0000F931123109311921292FCF76FFA089926
:104DD000099A07200790FDF7D1F90798FDF7C4F964
:104DE0000899099A28200A90FDF7C8F90A98FDF752
:104DF000BBF914B080BD000080B582B040F6280039
:104E0000C2F20000019043F20001C4F2010101600E
:104E10004FF48271416000218160C1600161416194
:104E20004FF4007282611022C261016241628162AC
:104E30000A21C162FDF7F4FE18B1FFE7FCF7B6F9ED
:104E4000FFE702B080BD000080B540F68000C2F2EE
:104E5000000044F60001C4F20101016040F2BF31DC
:104E600041600021816040F2E732C26001618161EE
:104E7000FEF7BCFB18B1FFE7FCF798F9FFE740F637
:104E80008000C2F20000FEF729FC80BD80B582B030
:104E900040F6C800C2F20000019041F20001C4F2E5
:104EA000010101604FF4E131416000218160C16086
:104EB00001610C2242618161C161FEF701FE18B1FE
:104EC000FFE7FCF773F9FFE702B080BD80B540F261
:104ED0004810C2F2000048F23571C0F6000101220C
:104EE00002F06CFA18B1FFE7FCF760F9FFE740F257
:104EF0004810C2F2000040F21001C2F2000103F0BB
:104F0000D3FA18B1FFE7FCF751F9FFE740F2481078
:104F1000C2F2000040F23401C2F2000103F0C4FA10
:104F200018B1FFE7FCF742F9FFE740F24810C2F280
:104F3000000003F0F1FB18B1FFE7FCF737F9FFE7DA
:104F400080BD000080B540F24810C2F2000002F0BF
:104F50007BFF80BDFFE7FEE7FFE7FEE780B586B099
:104F6000C2208DF814004FF0C230049000208DF85C
:104F70000C000290302004A905220092FBF7EAFC05
:104F80004FF4FA70FCF71AF9009A102002A9FBF707
:104F9000D1FBFFE74AF6D760C0F600004BF2316163
:104FA000C0F60001A12205F049FA4BF21C60C0F6E0
:104FB000000005F043FA4AF6D460C0F6000005F0A0
:104FC0003DFAFFE700208DF80700FFE79DF8070096
:104FD000042811DCFFE79DF8071002A8425C4BF2A1
:104FE000BB50C0F6000005F029FAFFE79DF8070066
:104FF00001308DF80700E9E74AF6D460C0F60000FA
:1050000005F01CFA00208DF80700FFE79DF8070067
:10501000042814DCFFE79DF8072002A8805C04A99F
:10502000895C884204D0FFE700208DF817000AE071
:10503000FFE79DF8070001308DF80700E6E78020C4
:105040008DF81700FFE79DF8170006B080BD00003F
:1050500088B0079006910592079800F00700049029
:105060000498C0F10700052803D3FFE7042001904E
:1050700004E00498C0F107000190FFE70198039055
:1050800004980430062803D8FFE70020009003E0CE
:10509000049803380090FFE700980290069803995F
:1050A000012202FA01F101390840029B984005995A
:1050B0009A40013A1140084308B0704780B540F269
:1050C0002450C2F20000FCF765FD80BD704700006F
:1050D00080B586B004900391029204984068B0F5C0
:1050E000827F13D1FFE704988068B0F5004F06D0A7
:1050F000FFE704988068B0F5806F07D1FFE7049858
:105100000168086820F040000860FFE704984068E4
:10511000B0F5827F31D1FFE704988068B0F5806FE9
:1051200015D0FFE70498039B02996A46116080211D
:10513000002200F091F848B1FFE70499486D40F073
:105140002000486503208DF817002FE014E0049834
:10515000039B02996A4611600121002200F07CF84D
:1051600048B1FFE70499486D40F0200048650320EE
:105170008DF817001AE0FFE714E00498039B0299EA
:105180006A4611600121002200F066F848B1FFE78D
:105190000499486D40F02000486503208DF8170001
:1051A00004E0FFE700208DF81700FFE79DF81700E7
:1051B00006B080BD80B586B004900391029240F2A3
:1051C0003000C2F2000000684AF6AB21CAF6AA21FC
:1051D000A0FB011000094DF68361C4F21B31A0FB56
:1051E0000110800C4FF47A71484301900498406894
:1051F000B0F5827F15D1FFE70498039B02996A46B8
:1052000011608021002200F027F848B1FFE70499DF
:10521000486D40F02000486503208DF8170017E026
:1052200012E0FFE7019808B9FFE70CE001980138A8
:105230000190FFE7049800688068C1B20020B0EBDD
:10524000D11FEFD1FFE7FFE700208DF81700FFE740
:105250009DF8170006B080BD80B58AB0DDF830C07B
:10526000089007918DF81B20059305980190FCF795
:1052700013FA024601980C99891A08440390FCF726
:105280000BFA0290039840F23001C2F20001096863
:10529000C1F3CB3148430490FFE708980068806869
:1052A00007990840401AB0FA80F040099DF81B1099
:1052B00088425ED0FFE705980130002858D0FFE70C
:1052C000FCF7EAF90299401A0399884204D2FFE7F1
:1052D0000398002842D1FFE708980168486820F049
:1052E000E000486008984068B0F5827F13D1FFE77E
:1052F00008988068B0F5004F06D0FFE708988068EE
:10530000B0F5806F07D1FFE708980168086820F0C2
:1053100040000860FFE70898806AB0F5005F0FD191
:10532000FFE7FFE708980168086820F4005008606C
:1053300008980168086840F400500860FFE7FFE73C
:105340000899012081F85100FFE70899002081F8B1
:105350005000FFE703208DF827000EE0049818B9ED
:10536000FFE700200390FFE7049801380490FFE76F
:1053700093E700208DF82700FFE79DF827000AB08B
:1053800080BD00007047000080B582B0009000989A
:105390000138B0F1807F03D3FFE70120019019E0CD
:1053A000009801384EF21401CEF2000108604FF06F
:1053B000FF300F2104F078FF4EF21801CEF2000109
:1053C000002008604EF21002CEF2000207211160A8
:1053D0000190FFE7019802B080BD000080B5FCF7A6
:1053E0003BFE80BD80B594B008A83021FAF728FFB5
:1053F000002007900690059004900390FFE700209E
:10540000029043F64000C4F20200016841F080516E
:105410000160006800F0805002900298FFE7FFE70B
:105420000020019047F20000C4F20000016841F43E
:1054300040410160006800F4404001900198FFE79E
:10544000012008904FF48030099002200E904FF414
:1054500080010F910C211091602111911290042074
:10546000139008A8FDF77CF818B1FFE7FBF79EFE44
:10547000FFE70F20039002200490002005904FF4D6
:1054800080510691079003A80321FCF799FE18B1FB
:10549000FFE7FBF78BFEFFE714B080BD4EF68851A7
:1054A000CEF20001086840F4700008607047000008
:1054B00080B540F68000C2F20000FEF77DF980BDA5
:1054C00083B0029001910298006800900298002138
:1054D000C4F2010188421DD0FFE70298B0F1804F6D
:1054E00018D0FFE7029840F20041C4F20001884260
:1054F00010D0FFE7029840F60001C4F20001884294
:1055000008D0FFE7029840F60041C4F2000188424B
:105510000AD1FFE7009820F07000009001984168E0
:10552000009808430090FFE702980021C4F20101AF
:10553000884235D0FFE70298B0F1804F30D0FFE7C6
:10554000029840F20041C4F20001884228D0FFE7EF
:10555000029840F60001C4F20001884220D0FFE723
:10556000029840F60041C4F20001884218D0FFE7DB
:10557000029844F20001C4F20101884210D0FFE712
:10558000029844F20041C4F20101884208D0FFE7CA
:10559000029844F60001C4F2010188420AD1FFE7F3
:1055A000009820F4407000900198C168009808436A
:1055B0000090FFE7009820F08000019949690843B6
:1055C0000090009802990860019880680299C8626A
:1055D000019800680299886202980021C4F20101D2
:1055E000884205D1FFE70198006902990863FFE747
:1055F00002990120486103B07047000080B586B071
:10560000059005980068006920F44050059A1168DB
:10561000D26810430861059988680B694A69C969AD
:10562000184310430843049005980068C06849F285
:105630000C6188430499084305990968C860059876
:105640000068406920F44070059A1168926910431F
:1056500048610598006841F20001C4F201018842E6
:1056600009D0FFE70598006841F20041C4F201014A
:10567000884204D1FFE7FCF7EDFE039003E0FCF75E
:10568000D7FE0390FFE70598C069B0F5004F29D118
:10569000FFE703981921A0FB0101059A1368029303
:1056A00053685A00DB0FFAF793FD0299864648F2D9
:1056B0001F53C5F2EB13AEFB0320420910014FF05C
:1056C000640C02FB1CEC322202EBCC02A2FB033284
:1056D000F82303EA521300EB4300C2F342121044D2
:1056E000886026E003981921A0FB0101059A136840
:1056F000019353689A009B0FFAF76AFD019984465B
:1057000048F21F52C5F2EB12ACFB02304309642091
:1057100003FB10CC322000EB0C10A0FB0202F020A7
:1057200000EA521000EB0310C2F3431210448860E9
:10573000FFE706B080BD000080B588B0DDF828C066
:10574000069005918DF813200393FFE706980068F3
:10575000006805990840401AB0FA80F040099DF8A9
:105760001310884249D1FFE70A980130002843D03E
:10577000FFE70A9840B1FFE7FBF78EFF0399401A55
:105780000A99884237D9FFE7FFE7FFE706980068E4
:1057900050E8030F20F4D0700290FFE702990698BA
:1057A000026842E803100028F0D1FFE7FFE7FFE7B7
:1057B000FFE70698006850E8050F20F0010001900F
:1057C000FFE701990698026842E805100028F0D129
:1057D000FFE7FFE70699202081F83D00069981F850
:1057E0003E00FFE70699002081F83C00FFE7032018
:1057F0008DF81F0005E0FFE7A8E700208DF81F00E7
:10580000FFE79DF81F0008B080BD000080B582B0A2
:1058100001908DF80310019800F0B4F9ADF8000084
:10582000BDF800004FF6FF7188420ED0FFE79DF8EB
:10583000030000F500400199BDF8002002F00F02BE
:1058400001EB8201C1F88803FFE79DF8000002B078
:1058500080BD000080B582B001908DF803100198E2
:105860009DF8031001F01CFE002002B080BD000076
:1058700080B582B001908DF80310019880780128DE
:1058800010D1FFE7019902200874019901204874A2
:105890000199002048829DF80310019A9182019994
:1058A000C882FFE701980022114600F023F802B0F9
:1058B00080BD000080B588B007900691ADF8162035
:1058C0008DF8153007989DF81510069ABDF816E06A
:1058D000EC4600230493CCF80C30CCF808E0CCF86C
:1058E00004200122CCF8002001F0A0FF049808B0A9
:1058F00080BD000080B584B003900291ADF8062011
:1059000001208DF805000398807801460091012858
:1059100004D0FFE70098022810D030E002980399E5
:105920008860BDF8060003998881039901200876F4
:10593000039A022191708DF8050021E0039801F08F
:105940004DF88DF805009DF8050028B1FFE79DF89A
:105950000500032807D1FFE7039901208870039908
:10596000002008760AE09DF80500022804D1FFE730
:1059700003990120887000E0FFE7FFE700E0FFE700
:105980009DF8050004B080BD80B588B084460A98B3
:10599000CDF81CC00691ADF816208DF815308DF8A5
:1059A0001400079890F81D0320B1FFE700208DF840
:1059B0001400FFE707989DF81510069ABDF816C069
:1059C0009DF814E06B46C3F80CE0C3F808C05A60B9
:1059D00001221A60002304931A4601F027FF04985D
:1059E00008B080BD80B588B0079006918DF817206B
:1059F00007989DF81710DDF818C06A460023049335
:105A0000D3604FF0080EC2F808E0C2F804C013607B
:105A10001A4601F00BFF049808B080BD80B582B033
:105A200001900198FBF7CAFB02B080BD86B00490DC
:105A30008DF80F108DF80E208DF80D3000208DF8A8
:105A400003000290049800F54E700190FFE79DF866
:105A50000300012837D8FFE7019A9DF803001A21B7
:105A600010FB01200A300290029840799DF80F1037
:105A7000884205D0FFE79DF80F00FF281DD1FFE702
:105A8000029880799DF80E10884205D0FFE79DF8B6
:105A90000E00FF2811D1FFE70298C0799DF80D1084
:105AA000884205D0FFE79DF80D00FF2805D1FFE7EC
:105AB0009DF803008DF8170009E09DF80300013000
:105AC0008DF80300C3E7FF208DF81700FFE79DF86E
:105AD000170006B07047000082B001908DF80310E7
